{
  "_format": "hh-sol-artifact-1",
  "contractName": "Marketplace",
  "sourceName": "contracts/MarketplaceContract.sol",
  "abi": [
    {
      "inputs": [
        {
          "internalType": "address",
          "name": "tokenAddress",
          "type": "address"
        }
      ],
      "stateMutability": "nonpayable",
      "type": "constructor"
    },
    {
      "anonymous": false,
      "inputs": [
        {
          "indexed": true,
          "internalType": "address",
          "name": "seller",
          "type": "address"
        },
        {
          "indexed": false,
          "internalType": "uint256",
          "name": "amount",
          "type": "uint256"
        },
        {
          "indexed": false,
          "internalType": "uint256",
          "name": "price",
          "type": "uint256"
        }
      ],
      "name": "ListingCreated",
      "type": "event"
    },
    {
      "anonymous": false,
      "inputs": [
        {
          "indexed": true,
          "internalType": "address",
          "name": "buyer",
          "type": "address"
        },
        {
          "indexed": true,
          "internalType": "address",
          "name": "seller",
          "type": "address"
        },
        {
          "indexed": false,
          "internalType": "uint256",
          "name": "amount",
          "type": "uint256"
        },
        {
          "indexed": false,
          "internalType": "uint256",
          "name": "price",
          "type": "uint256"
        }
      ],
      "name": "PurchaseCompleted",
      "type": "event"
    },
    {
      "inputs": [
        {
          "internalType": "uint256",
          "name": "amount",
          "type": "uint256"
        },
        {
          "internalType": "uint256",
          "name": "price",
          "type": "uint256"
        }
      ],
      "name": "listCredits",
      "outputs": [],
      "stateMutability": "nonpayable",
      "type": "function"
    },
    {
      "inputs": [
        {
          "internalType": "uint256",
          "name": "",
          "type": "uint256"
        }
      ],
      "name": "listings",
      "outputs": [
        {
          "internalType": "address",
          "name": "seller",
          "type": "address"
        },
        {
          "internalType": "uint256",
          "name": "amount",
          "type": "uint256"
        },
        {
          "internalType": "uint256",
          "name": "price",
          "type": "uint256"
        }
      ],
      "stateMutability": "view",
      "type": "function"
    },
    {
      "inputs": [
        {
          "internalType": "uint256",
          "name": "listingIndex",
          "type": "uint256"
        }
      ],
      "name": "purchaseCredits",
      "outputs": [],
      "stateMutability": "payable",
      "type": "function"
    },
    {
      "inputs": [],
      "name": "viewListings",
      "outputs": [
        {
          "components": [
            {
              "internalType": "address",
              "name": "seller",
              "type": "address"
            },
            {
              "internalType": "uint256",
              "name": "amount",
              "type": "uint256"
            },
            {
              "internalType": "uint256",
              "name": "price",
              "type": "uint256"
            }
          ],
          "internalType": "struct Marketplace.Listing[]",
          "name": "",
          "type": "tuple[]"
        }
      ],
      "stateMutability": "view",
      "type": "function"
    }
  ],
  "bytecode": "0x608060405234801561001057600080fd5b506040516110e63803806110e6833981810160405281019061003291906100db565b806000806101000a81548173ffffffffffffffffffffffffffffffffffffffff021916908373ffffffffffffffffffffffffffffffffffffffff16021790555050610108565b600080fd5b600073ffffffffffffffffffffffffffffffffffffffff82169050919050565b60006100a88261007d565b9050919050565b6100b88161009d565b81146100c357600080fd5b50565b6000815190506100d5816100af565b92915050565b6000602082840312156100f1576100f0610078565b5b60006100ff848285016100c6565b91505092915050565b610fcf806101176000396000f3fe60806040526004361061003f5760003560e01c8063353395e614610044578063b496c6c81461006d578063bef101fb14610098578063de74e57b146100b4575b600080fd5b34801561005057600080fd5b5061006b6004803603810190610066919061097e565b6100f3565b005b34801561007957600080fd5b5061008261045b565b60405161008f9190610aff565b60405180910390f35b6100b260048036038101906100ad9190610b21565b610524565b005b3480156100c057600080fd5b506100db60048036038101906100d69190610b21565b6108e9565b6040516100ea93929190610b6c565b60405180910390f35b8160008054906101000a900473ffffffffffffffffffffffffffffffffffffffff1673ffffffffffffffffffffffffffffffffffffffff166370a08231336040518263ffffffff1660e01b815260040161014d9190610ba3565b602060405180830381865afa15801561016a573d6000803e3d6000fd5b505050506040513d601f19601f8201168201806040525081019061018e9190610bd3565b10156101cf576040517f08c379a00000000000000000000000000000000000000000000000000000000081526004016101c690610c5d565b60405180910390fd5b8160008054906101000a900473ffffffffffffffffffffffffffffffffffffffff1673ffffffffffffffffffffffffffffffffffffffff1663dd62ed3e33306040518363ffffffff1660e01b815260040161022b929190610c7d565b602060405180830381865afa158015610248573d6000803e3d6000fd5b505050506040513d601f19601f8201168201806040525081019061026c9190610bd3565b10156102ad576040517f08c379a00000000000000000000000000000000000000000000000000000000081526004016102a490610cf2565b60405180910390fd5b60008054906101000a900473ffffffffffffffffffffffffffffffffffffffff1673ffffffffffffffffffffffffffffffffffffffff166323b872dd3330856040518463ffffffff1660e01b815260040161030a93929190610d12565b6020604051808303816000875af1158015610329573d6000803e3d6000fd5b505050506040513d601f19601f8201168201806040525081019061034d9190610d81565b50600160405180606001604052803373ffffffffffffffffffffffffffffffffffffffff16815260200184815260200183815250908060018154018082558091505060019003906000526020600020906003020160009091909190915060008201518160000160006101000a81548173ffffffffffffffffffffffffffffffffffffffff021916908373ffffffffffffffffffffffffffffffffffffffff160217905550602082015181600101556040820151816002015550503373ffffffffffffffffffffffffffffffffffffffff167f204bc022fa26366a9c1a614f0418b5d7a017e73cb2404f70a9a696f110334e51838360405161044f929190610dae565b60405180910390a25050565b60606001805480602002602001604051908101604052809291908181526020016000905b8282101561051b57838290600052602060002090600302016040518060600160405290816000820160009054906101000a900473ffffffffffffffffffffffffffffffffffffffff1673ffffffffffffffffffffffffffffffffffffffff1673ffffffffffffffffffffffffffffffffffffffff168152602001600182015481526020016002820154815250508152602001906001019061047f565b50505050905090565b600180549050811061056b576040517f08c379a000000000000000000000000000000000000000000000000000000000815260040161056290610e23565b60405180910390fd5b60006001828154811061058157610580610e43565b5b90600052602060002090600302016040518060600160405290816000820160009054906101000a900473ffffffffffffffffffffffffffffffffffffffff1673ffffffffffffffffffffffffffffffffffffffff1673ffffffffffffffffffffffffffffffffffffffff168152602001600182015481526020016002820154815250509050806040015134101561064d576040517f08c379a000000000000000000000000000000000000000000000000000000000815260040161064490610ebe565b60405180910390fd5b806000015173ffffffffffffffffffffffffffffffffffffffff166108fc82604001519081150290604051600060405180830381858888f1935050505015801561069b573d6000803e3d6000fd5b5060008054906101000a900473ffffffffffffffffffffffffffffffffffffffff1673ffffffffffffffffffffffffffffffffffffffff1663a9059cbb3383602001516040518363ffffffff1660e01b81526004016106fb929190610ede565b6020604051808303816000875af115801561071a573d6000803e3d6000fd5b505050506040513d601f19601f8201168201806040525081019061073e9190610d81565b5060018080805490506107519190610f36565b8154811061076257610761610e43565b5b90600052602060002090600302016001838154811061078457610783610e43565b5b90600052602060002090600302016000820160009054906101000a900473ffffffffffffffffffffffffffffffffffffffff168160000160006101000a81548173ffffffffffffffffffffffffffffffffffffffff021916908373ffffffffffffffffffffffffffffffffffffffff1602179055506001820154816001015560028201548160020155905050600180548061082257610821610f6a565b5b6001900381819060005260206000209060030201600080820160006101000a81549073ffffffffffffffffffffffffffffffffffffffff02191690556001820160009055600282016000905550509055806000015173ffffffffffffffffffffffffffffffffffffffff163373ffffffffffffffffffffffffffffffffffffffff167f6964a43f52a0a106ad9b05cef2dcf857c326b3757a03ace5a4a90e28c4ac3a01836020015184604001516040516108dd929190610dae565b60405180910390a35050565b600181815481106108f957600080fd5b90600052602060002090600302016000915090508060000160009054906101000a900473ffffffffffffffffffffffffffffffffffffffff16908060010154908060020154905083565b600080fd5b6000819050919050565b61095b81610948565b811461096657600080fd5b50565b60008135905061097881610952565b92915050565b6000806040838503121561099557610994610943565b5b60006109a385828601610969565b92505060206109b485828601610969565b9150509250929050565b600081519050919050565b600082825260208201905092915050565b6000819050602082019050919050565b600073ffffffffffffffffffffffffffffffffffffffff82169050919050565b6000610a15826109ea565b9050919050565b610a2581610a0a565b82525050565b610a3481610948565b82525050565b606082016000820151610a506000850182610a1c565b506020820151610a636020850182610a2b565b506040820151610a766040850182610a2b565b50505050565b6000610a888383610a3a565b60608301905092915050565b6000602082019050919050565b6000610aac826109be565b610ab681856109c9565b9350610ac1836109da565b8060005b83811015610af2578151610ad98882610a7c565b9750610ae483610a94565b925050600181019050610ac5565b5085935050505092915050565b60006020820190508181036000830152610b198184610aa1565b905092915050565b600060208284031215610b3757610b36610943565b5b6000610b4584828501610969565b91505092915050565b610b5781610a0a565b82525050565b610b6681610948565b82525050565b6000606082019050610b816000830186610b4e565b610b8e6020830185610b5d565b610b9b6040830184610b5d565b949350505050565b6000602082019050610bb86000830184610b4e565b92915050565b600081519050610bcd81610952565b92915050565b600060208284031215610be957610be8610943565b5b6000610bf784828501610bbe565b91505092915050565b600082825260208201905092915050565b7f496e73756666696369656e7420746f6b656e2062616c616e6365000000000000600082015250565b6000610c47601a83610c00565b9150610c5282610c11565b602082019050919050565b60006020820190508181036000830152610c7681610c3a565b9050919050565b6000604082019050610c926000830185610b4e565b610c9f6020830184610b4e565b9392505050565b7f546f6b656e20616c6c6f77616e636520746f6f206c6f77000000000000000000600082015250565b6000610cdc601783610c00565b9150610ce782610ca6565b602082019050919050565b60006020820190508181036000830152610d0b81610ccf565b9050919050565b6000606082019050610d276000830186610b4e565b610d346020830185610b4e565b610d416040830184610b5d565b949350505050565b60008115159050919050565b610d5e81610d49565b8114610d6957600080fd5b50565b600081519050610d7b81610d55565b92915050565b600060208284031215610d9757610d96610943565b5b6000610da584828501610d6c565b91505092915050565b6000604082019050610dc36000830185610b5d565b610dd06020830184610b5d565b9392505050565b7f496e76616c6964206c697374696e6720696e6465780000000000000000000000600082015250565b6000610e0d601583610c00565b9150610e1882610dd7565b602082019050919050565b60006020820190508181036000830152610e3c81610e00565b9050919050565b7f4e487b7100000000000000000000000000000000000000000000000000000000600052603260045260246000fd5b7f496e73756666696369656e74207061796d656e74000000000000000000000000600082015250565b6000610ea8601483610c00565b9150610eb382610e72565b602082019050919050565b60006020820190508181036000830152610ed781610e9b565b9050919050565b6000604082019050610ef36000830185610b4e565b610f006020830184610b5d565b9392505050565b7f4e487b7100000000000000000000000000000000000000000000000000000000600052601160045260246000fd5b6000610f4182610948565b9150610f4c83610948565b9250828203905081811115610f6457610f63610f07565b5b92915050565b7f4e487b7100000000000000000000000000000000000000000000000000000000600052603160045260246000fdfea2646970667358221220f6279cbd7915449d318fdbeca7048ee9e76cb6d98bb450eea7ec76a91c8b98b964736f6c634300081c0033",
  "linkReferences": {},
  "deployedLinkReferences": {}
}