{
  "_format": "hh-sol-artifact-1",
  "contractName": "BreakfastCreditsToken",
  "sourceName": "contracts/BreakfastTokenContract.sol",
  "abi": [
    {
      "inputs": [
        {
          "internalType": "address payable",
          "name": "vaultAddress",
          "type": "address"
        }
      ],
      "stateMutability": "nonpayable",
      "type": "constructor"
    },
    {
      "inputs": [
        {
          "internalType": "address",
          "name": "spender",
          "type": "address"
        },
        {
          "internalType": "uint256",
          "name": "allowance",
          "type": "uint256"
        },
        {
          "internalType": "uint256",
          "name": "needed",
          "type": "uint256"
        }
      ],
      "name": "ERC20InsufficientAllowance",
      "type": "error"
    },
    {
      "inputs": [
        {
          "internalType": "address",
          "name": "sender",
          "type": "address"
        },
        {
          "internalType": "uint256",
          "name": "balance",
          "type": "uint256"
        },
        {
          "internalType": "uint256",
          "name": "needed",
          "type": "uint256"
        }
      ],
      "name": "ERC20InsufficientBalance",
      "type": "error"
    },
    {
      "inputs": [
        {
          "internalType": "address",
          "name": "approver",
          "type": "address"
        }
      ],
      "name": "ERC20InvalidApprover",
      "type": "error"
    },
    {
      "inputs": [
        {
          "internalType": "address",
          "name": "receiver",
          "type": "address"
        }
      ],
      "name": "ERC20InvalidReceiver",
      "type": "error"
    },
    {
      "inputs": [
        {
          "internalType": "address",
          "name": "sender",
          "type": "address"
        }
      ],
      "name": "ERC20InvalidSender",
      "type": "error"
    },
    {
      "inputs": [
        {
          "internalType": "address",
          "name": "spender",
          "type": "address"
        }
      ],
      "name": "ERC20InvalidSpender",
      "type": "error"
    },
    {
      "inputs": [],
      "name": "NotSeller",
      "type": "error"
    },
    {
      "inputs": [],
      "name": "OrderDoesNotExist",
      "type": "error"
    },
    {
      "inputs": [
        {
          "internalType": "address",
          "name": "owner",
          "type": "address"
        }
      ],
      "name": "OwnableInvalidOwner",
      "type": "error"
    },
    {
      "inputs": [
        {
          "internalType": "address",
          "name": "account",
          "type": "address"
        }
      ],
      "name": "OwnableUnauthorizedAccount",
      "type": "error"
    },
    {
      "anonymous": false,
      "inputs": [
        {
          "indexed": true,
          "internalType": "address",
          "name": "owner",
          "type": "address"
        },
        {
          "indexed": true,
          "internalType": "address",
          "name": "spender",
          "type": "address"
        },
        {
          "indexed": false,
          "internalType": "uint256",
          "name": "value",
          "type": "uint256"
        }
      ],
      "name": "Approval",
      "type": "event"
    },
    {
      "anonymous": false,
      "inputs": [
        {
          "indexed": false,
          "internalType": "address",
          "name": "donor",
          "type": "address"
        },
        {
          "indexed": false,
          "internalType": "uint256",
          "name": "amount",
          "type": "uint256"
        },
        {
          "indexed": false,
          "internalType": "uint256",
          "name": "timestamp",
          "type": "uint256"
        }
      ],
      "name": "DonationReceived",
      "type": "event"
    },
    {
      "anonymous": false,
      "inputs": [
        {
          "indexed": true,
          "internalType": "address",
          "name": "previousOwner",
          "type": "address"
        },
        {
          "indexed": true,
          "internalType": "address",
          "name": "newOwner",
          "type": "address"
        }
      ],
      "name": "OwnershipTransferred",
      "type": "event"
    },
    {
      "anonymous": false,
      "inputs": [
        {
          "indexed": true,
          "internalType": "address",
          "name": "from",
          "type": "address"
        },
        {
          "indexed": true,
          "internalType": "address",
          "name": "to",
          "type": "address"
        },
        {
          "indexed": false,
          "internalType": "uint256",
          "name": "value",
          "type": "uint256"
        }
      ],
      "name": "Transfer",
      "type": "event"
    },
    {
      "anonymous": false,
      "inputs": [
        {
          "indexed": false,
          "internalType": "uint256",
          "name": "orderId",
          "type": "uint256"
        },
        {
          "indexed": false,
          "internalType": "uint256",
          "name": "amount",
          "type": "uint256"
        },
        {
          "indexed": false,
          "internalType": "uint256",
          "name": "timestamp",
          "type": "uint256"
        },
        {
          "indexed": false,
          "internalType": "address",
          "name": "buyer",
          "type": "address"
        },
        {
          "indexed": false,
          "internalType": "address",
          "name": "seller",
          "type": "address"
        }
      ],
      "name": "orderFulfilled",
      "type": "event"
    },
    {
      "anonymous": false,
      "inputs": [
        {
          "indexed": false,
          "internalType": "uint256",
          "name": "timestamp",
          "type": "uint256"
        },
        {
          "indexed": false,
          "internalType": "address",
          "name": "claimer",
          "type": "address"
        }
      ],
      "name": "tokenClaimed",
      "type": "event"
    },
    {
      "inputs": [
        {
          "internalType": "address",
          "name": "owner",
          "type": "address"
        },
        {
          "internalType": "address",
          "name": "spender",
          "type": "address"
        }
      ],
      "name": "allowance",
      "outputs": [
        {
          "internalType": "uint256",
          "name": "",
          "type": "uint256"
        }
      ],
      "stateMutability": "view",
      "type": "function"
    },
    {
      "inputs": [
        {
          "internalType": "address",
          "name": "spender",
          "type": "address"
        },
        {
          "internalType": "uint256",
          "name": "value",
          "type": "uint256"
        }
      ],
      "name": "approve",
      "outputs": [
        {
          "internalType": "bool",
          "name": "",
          "type": "bool"
        }
      ],
      "stateMutability": "nonpayable",
      "type": "function"
    },
    {
      "inputs": [
        {
          "internalType": "address",
          "name": "account",
          "type": "address"
        }
      ],
      "name": "balanceOf",
      "outputs": [
        {
          "internalType": "uint256",
          "name": "",
          "type": "uint256"
        }
      ],
      "stateMutability": "view",
      "type": "function"
    },
    {
      "inputs": [
        {
          "internalType": "uint256",
          "name": "amount",
          "type": "uint256"
        }
      ],
      "name": "burn",
      "outputs": [],
      "stateMutability": "nonpayable",
      "type": "function"
    },
    {
      "inputs": [
        {
          "internalType": "uint256",
          "name": "orderId",
          "type": "uint256"
        },
        {
          "internalType": "uint256",
          "name": "amount",
          "type": "uint256"
        }
      ],
      "name": "buyOrder",
      "outputs": [],
      "stateMutability": "payable",
      "type": "function"
    },
    {
      "inputs": [],
      "name": "claimDiningCredit",
      "outputs": [],
      "stateMutability": "nonpayable",
      "type": "function"
    },
    {
      "inputs": [],
      "name": "decimals",
      "outputs": [
        {
          "internalType": "uint8",
          "name": "",
          "type": "uint8"
        }
      ],
      "stateMutability": "view",
      "type": "function"
    },
    {
      "inputs": [
        {
          "internalType": "address[]",
          "name": "accounts",
          "type": "address[]"
        },
        {
          "internalType": "uint256",
          "name": "amount",
          "type": "uint256"
        }
      ],
      "name": "distribute",
      "outputs": [],
      "stateMutability": "nonpayable",
      "type": "function"
    },
    {
      "inputs": [
        {
          "internalType": "uint256",
          "name": "amount",
          "type": "uint256"
        }
      ],
      "name": "donate",
      "outputs": [],
      "stateMutability": "nonpayable",
      "type": "function"
    },
    {
      "inputs": [],
      "name": "getTotalDonations",
      "outputs": [
        {
          "internalType": "uint256",
          "name": "",
          "type": "uint256"
        }
      ],
      "stateMutability": "view",
      "type": "function"
    },
    {
      "inputs": [],
      "name": "listOrders",
      "outputs": [
        {
          "components": [
            {
              "internalType": "uint256",
              "name": "id",
              "type": "uint256"
            },
            {
              "internalType": "address",
              "name": "seller",
              "type": "address"
            },
            {
              "internalType": "uint256",
              "name": "amount",
              "type": "uint256"
            },
            {
              "internalType": "uint256",
              "name": "price",
              "type": "uint256"
            },
            {
              "internalType": "bool",
              "name": "active",
              "type": "bool"
            },
            {
              "internalType": "uint256",
              "name": "startTime",
              "type": "uint256"
            }
          ],
          "internalType": "struct Tradable.SellOrder[]",
          "name": "",
          "type": "tuple[]"
        }
      ],
      "stateMutability": "view",
      "type": "function"
    },
    {
      "inputs": [],
      "name": "listOrdersByUser",
      "outputs": [
        {
          "components": [
            {
              "internalType": "uint256",
              "name": "id",
              "type": "uint256"
            },
            {
              "internalType": "address",
              "name": "seller",
              "type": "address"
            },
            {
              "internalType": "uint256",
              "name": "amount",
              "type": "uint256"
            },
            {
              "internalType": "uint256",
              "name": "price",
              "type": "uint256"
            },
            {
              "internalType": "bool",
              "name": "active",
              "type": "bool"
            },
            {
              "internalType": "uint256",
              "name": "startTime",
              "type": "uint256"
            }
          ],
          "internalType": "struct Tradable.SellOrder[]",
          "name": "",
          "type": "tuple[]"
        }
      ],
      "stateMutability": "view",
      "type": "function"
    },
    {
      "inputs": [
        {
          "internalType": "uint256",
          "name": "amount",
          "type": "uint256"
        }
      ],
      "name": "mint",
      "outputs": [],
      "stateMutability": "nonpayable",
      "type": "function"
    },
    {
      "inputs": [],
      "name": "name",
      "outputs": [
        {
          "internalType": "string",
          "name": "",
          "type": "string"
        }
      ],
      "stateMutability": "view",
      "type": "function"
    },
    {
      "inputs": [],
      "name": "owner",
      "outputs": [
        {
          "internalType": "address",
          "name": "",
          "type": "address"
        }
      ],
      "stateMutability": "view",
      "type": "function"
    },
    {
      "inputs": [
        {
          "internalType": "uint256",
          "name": "amount",
          "type": "uint256"
        },
        {
          "internalType": "uint256",
          "name": "price",
          "type": "uint256"
        }
      ],
      "name": "placeSellOrder",
      "outputs": [],
      "stateMutability": "nonpayable",
      "type": "function"
    },
    {
      "inputs": [
        {
          "internalType": "uint256",
          "name": "orderId",
          "type": "uint256"
        }
      ],
      "name": "removeOrder",
      "outputs": [],
      "stateMutability": "nonpayable",
      "type": "function"
    },
    {
      "inputs": [],
      "name": "renounceOwnership",
      "outputs": [],
      "stateMutability": "nonpayable",
      "type": "function"
    },
    {
      "inputs": [],
      "name": "symbol",
      "outputs": [
        {
          "internalType": "string",
          "name": "",
          "type": "string"
        }
      ],
      "stateMutability": "view",
      "type": "function"
    },
    {
      "inputs": [],
      "name": "totalSupply",
      "outputs": [
        {
          "internalType": "uint256",
          "name": "",
          "type": "uint256"
        }
      ],
      "stateMutability": "view",
      "type": "function"
    },
    {
      "inputs": [
        {
          "internalType": "address",
          "name": "to",
          "type": "address"
        },
        {
          "internalType": "uint256",
          "name": "value",
          "type": "uint256"
        }
      ],
      "name": "transfer",
      "outputs": [
        {
          "internalType": "bool",
          "name": "",
          "type": "bool"
        }
      ],
      "stateMutability": "nonpayable",
      "type": "function"
    },
    {
      "inputs": [
        {
          "internalType": "address",
          "name": "from",
          "type": "address"
        },
        {
          "internalType": "address",
          "name": "to",
          "type": "address"
        },
        {
          "internalType": "uint256",
          "name": "value",
          "type": "uint256"
        }
      ],
      "name": "transferFrom",
      "outputs": [
        {
          "internalType": "bool",
          "name": "",
          "type": "bool"
        }
      ],
      "stateMutability": "nonpayable",
      "type": "function"
    },
    {
      "inputs": [
        {
          "internalType": "address",
          "name": "newOwner",
          "type": "address"
        }
      ],
      "name": "transferOwnership",
      "outputs": [],
      "stateMutability": "nonpayable",
      "type": "function"
    },
    {
      "inputs": [
        {
          "internalType": "uint256",
          "name": "orderId",
          "type": "uint256"
        },
        {
          "internalType": "uint256",
          "name": "newPrice",
          "type": "uint256"
        }
      ],
      "name": "updateOrderPrice",
      "outputs": [],
      "stateMutability": "nonpayable",
      "type": "function"
    }
  ],
  "bytecode": "0x608060405234801561001057600080fd5b5060405161338c38038061338c833981810160405281019061003291906102b3565b336040518060400160405280601081526020017f427265616b6661737420546f6b656e73000000000000000000000000000000008152506040518060400160405280600581526020017f424641535400000000000000000000000000000000000000000000000000000081525081600390816100ae9190610530565b5080600490816100be9190610530565b505050600073ffffffffffffffffffffffffffffffffffffffff168173ffffffffffffffffffffffffffffffffffffffff16036101335760006040517f1e4fbdf700000000000000000000000000000000000000000000000000000000815260040161012a9190610623565b60405180910390fd5b6101428161018a60201b60201c565b5080600760006101000a81548173ffffffffffffffffffffffffffffffffffffffff021916908373ffffffffffffffffffffffffffffffffffffffff1602179055505061063e565b6000600560009054906101000a900473ffffffffffffffffffffffffffffffffffffffff16905081600560006101000a81548173ffffffffffffffffffffffffffffffffffffffff021916908373ffffffffffffffffffffffffffffffffffffffff1602179055508173ffffffffffffffffffffffffffffffffffffffff168173ffffffffffffffffffffffffffffffffffffffff167f8be0079c531659141344cd1fd0a4f28419497f9722a3daafe3b4186f6b6457e060405160405180910390a35050565b600080fd5b600073ffffffffffffffffffffffffffffffffffffffff82169050919050565b600061028082610255565b9050919050565b61029081610275565b811461029b57600080fd5b50565b6000815190506102ad81610287565b92915050565b6000602082840312156102c9576102c8610250565b5b60006102d78482850161029e565b91505092915050565b600081519050919050565b7f4e487b7100000000000000000000000000000000000000000000000000000000600052604160045260246000fd5b7f4e487b7100000000000000000000000000000000000000000000000000000000600052602260045260246000fd5b6000600282049050600182168061036157607f821691505b6020821081036103745761037361031a565b5b50919050565b60008190508160005260206000209050919050565b60006020601f8301049050919050565b600082821b905092915050565b6000600883026103dc7fffffffffffffffffffffffffffffffffffffffffffffffffffffffffffffffff8261039f565b6103e6868361039f565b95508019841693508086168417925050509392505050565b6000819050919050565b6000819050919050565b600061042d610428610423846103fe565b610408565b6103fe565b9050919050565b6000819050919050565b61044783610412565b61045b61045382610434565b8484546103ac565b825550505050565b600090565b610470610463565b61047b81848461043e565b505050565b5b8181101561049f57610494600082610468565b600181019050610481565b5050565b601f8211156104e4576104b58161037a565b6104be8461038f565b810160208510156104cd578190505b6104e16104d98561038f565b830182610480565b50505b505050565b600082821c905092915050565b6000610507600019846008026104e9565b1980831691505092915050565b600061052083836104f6565b9150826002028217905092915050565b610539826102e0565b67ffffffffffffffff811115610552576105516102eb565b5b61055c8254610349565b6105678282856104a3565b600060209050601f83116001811461059a5760008415610588578287015190505b6105928582610514565b8655506105fa565b601f1984166105a88661037a565b60005b828110156105d0578489015182556001820191506020850194506020810190506105ab565b868310156105ed57848901516105e9601f8916826104f6565b8355505b6001600288020188555050505b505050505050565b600061060d82610255565b9050919050565b61061d81610602565b82525050565b60006020820190506106386000830184610614565b92915050565b612d3f8061064d6000396000f3fe60806040526004361061014b5760003560e01c8063728982af116100b6578063a4406bcd1161006f578063a4406bcd1461044b578063a9059cbb14610474578063dd62ed3e146104b1578063de25809f146104ee578063f14faf6f14610519578063f2fde38b146105425761014b565b8063728982af14610361578063777c658f146103785780638da5cb5b146103a357806395d89b41146103ce5780639645337a146103f9578063a0712d68146104225761014b565b806323b872dd1161010857806323b872dd14610253578063313ce5671461029057806342966c68146102bb5780635e9e78d0146102e457806370a082311461030d578063715018a61461034a5761014b565b806306fdde0314610150578063095ea7b31461017b578063142ee8d8146101b8578063176091f4146101d457806318160ddd146101ff5780631826c1191461022a575b600080fd5b34801561015c57600080fd5b5061016561056b565b6040516101729190611ec3565b60405180910390f35b34801561018757600080fd5b506101a2600480360381019061019d9190611f8d565b6105fd565b6040516101af9190611fe8565b60405180910390f35b6101d260048036038101906101cd9190612003565b610620565b005b3480156101e057600080fd5b506101e961078c565b6040516101f6919061219a565b60405180910390f35b34801561020b57600080fd5b5061021461079b565b60405161022191906121cb565b60405180910390f35b34801561023657600080fd5b50610251600480360381019061024c919061232e565b6107a5565b005b34801561025f57600080fd5b5061027a6004803603810190610275919061238a565b610805565b6040516102879190611fe8565b60405180910390f35b34801561029c57600080fd5b506102a5610834565b6040516102b291906123f9565b60405180910390f35b3480156102c757600080fd5b506102e260048036038101906102dd9190612414565b61083d565b005b3480156102f057600080fd5b5061030b60048036038101906103069190612003565b61089d565b005b34801561031957600080fd5b50610334600480360381019061032f9190612441565b6108ab565b60405161034191906121cb565b60405180910390f35b34801561035657600080fd5b5061035f6108f3565b005b34801561036d57600080fd5b50610376610907565b005b34801561038457600080fd5b5061038d6109a7565b60405161039a91906121cb565b60405180910390f35b3480156103af57600080fd5b506103b86109b1565b6040516103c5919061247d565b60405180910390f35b3480156103da57600080fd5b506103e36109db565b6040516103f09190611ec3565b60405180910390f35b34801561040557600080fd5b50610420600480360381019061041b9190612414565b610a6d565b005b34801561042e57600080fd5b5061044960048036038101906104449190612414565b610a95565b005b34801561045757600080fd5b50610472600480360381019061046d9190612003565b610aaa565b005b34801561048057600080fd5b5061049b60048036038101906104969190611f8d565b610b0d565b6040516104a89190611fe8565b60405180910390f35b3480156104bd57600080fd5b506104d860048036038101906104d39190612498565b610b30565b6040516104e591906121cb565b60405180910390f35b3480156104fa57600080fd5b50610503610bb7565b604051610510919061219a565b60405180910390f35b34801561052557600080fd5b50610540600480360381019061053b9190612414565b610bc7565b005b34801561054e57600080fd5b5061056960048036038101906105649190612441565b610c6e565b005b60606003805461057a90612507565b80601f01602080910402602001604051908101604052809291908181526020018280546105a690612507565b80156105f35780601f106105c8576101008083540402835291602001916105f3565b820191906000526020600020905b8154815290600101906020018083116105d657829003601f168201915b5050505050905090565b600080610608610cf4565b9050610615818585610cfc565b600191505092915050565b600061062b83610d0e565b90506000670de0b6b3a76400008383606001516106489190612567565b61065291906125d8565b905080341015610697576040517f08c379a000000000000000000000000000000000000000000000000000000000815260040161068e9061267b565b60405180910390fd5b6000349050600760009054906101000a900473ffffffffffffffffffffffffffffffffffffffff1673ffffffffffffffffffffffffffffffffffffffff1663f340fa018285602001516040518363ffffffff1660e01b81526004016106fc919061247d565b6000604051808303818588803b15801561071557600080fd5b505af1158015610729573d6000803e3d6000fd5b50505050506107388585610de3565b6107423385610fb6565b7f12dcc2d283d614878738ba5c0ef602b1f972ddd56feae9cefa4d08f0b53a814685854233876020015160405161077d95949392919061269b565b60405180910390a15050505050565b6060610796611038565b905090565b6000600254905090565b6107ad611130565b6107c28183516107bd9190612567565b610a95565b60005b8251811015610800576107f3338483815181106107e5576107e46126ee565b5b6020026020010151846111b7565b80806001019150506107c5565b505050565b600080610810610cf4565b905061081d8582856112ab565b6108288585856111b7565b60019150509392505050565b60006012905090565b610845611130565b8061084f336108ab565b1015610890576040517f08c379a00000000000000000000000000000000000000000000000000000000081526004016108879061278f565b60405180910390fd5b61089a338261133f565b50565b6108a782826113c1565b5050565b60008060008373ffffffffffffffffffffffffffffffffffffffff1673ffffffffffffffffffffffffffffffffffffffff168152602001908152602001600020549050919050565b6108fb611130565b61090560006114f0565b565b670de0b6b3a7640000610919336108ab565b101561095a576040517f08c379a000000000000000000000000000000000000000000000000000000000815260040161095190612821565b60405180910390fd5b61096c33670de0b6b3a764000061133f565b7f8bb77dd5e141eb3f86aeb15831be9830ce84c395d2bb27c83c56f4b52a6ae0c5423360405161099d929190612841565b60405180910390a1565b6000600854905090565b6000600560009054906101000a900473ffffffffffffffffffffffffffffffffffffffff16905090565b6060600480546109ea90612507565b80601f0160208091040260200160405190810160405280929190818152602001828054610a1690612507565b8015610a635780601f10610a3857610100808354040283529160200191610a63565b820191906000526020600020905b815481529060010190602001808311610a4657829003601f168201915b5050505050905090565b610a76816115b6565b6000610a8182610d0e565b9050610a91338260400151610fb6565b5050565b610a9d611130565b610aa73382610fb6565b50565b610ab3336108ab565b821115610af5576040517f08c379a0000000000000000000000000000000000000000000000000000000008152600401610aec906128dc565b60405180910390fd5b610aff338361133f565b610b0982826116ec565b5050565b600080610b18610cf4565b9050610b258185856111b7565b600191505092915050565b6000600160008473ffffffffffffffffffffffffffffffffffffffff1673ffffffffffffffffffffffffffffffffffffffff16815260200190815260200160002060008373ffffffffffffffffffffffffffffffffffffffff1673ffffffffffffffffffffffffffffffffffffffff16815260200190815260200160002054905092915050565b6060610bc233611852565b905090565b60008111610c0a576040517f08c379a0000000000000000000000000000000000000000000000000000000008152600401610c019061296e565b60405180910390fd5b610c173361dead836111b7565b8060086000828254610c29919061298e565b925050819055507f4b0304ab2f313234b1cea012339c8f8c3bf2c8bb357d81a579cfdb35d2e3d030338242604051610c63939291906129c2565b60405180910390a150565b610c76611130565b600073ffffffffffffffffffffffffffffffffffffffff168173ffffffffffffffffffffffffffffffffffffffff1603610ce85760006040517f1e4fbdf7000000000000000000000000000000000000000000000000000000008152600401610cdf919061247d565b60405180910390fd5b610cf1816114f0565b50565b600033905090565b610d0983838360016119e9565b505050565b610d16611de5565b60068281548110610d2a57610d296126ee565b5b90600052602060002090600602016040518060c0016040529081600082015481526020016001820160009054906101000a900473ffffffffffffffffffffffffffffffffffffffff1673ffffffffffffffffffffffffffffffffffffffff1673ffffffffffffffffffffffffffffffffffffffff16815260200160028201548152602001600382015481526020016004820160009054906101000a900460ff161515151581526020016005820154815250509050919050565b3373ffffffffffffffffffffffffffffffffffffffff1660068381548110610e0e57610e0d6126ee565b5b906000526020600020906006020160010160009054906101000a900473ffffffffffffffffffffffffffffffffffffffff1673ffffffffffffffffffffffffffffffffffffffff1614158015610e9a57506001151560068381548110610e7757610e766126ee565b5b906000526020600020906006020160040160009054906101000a900460ff161515145b8015610ecb575060068281548110610eb557610eb46126ee565b5b9060005260206000209060060201600201548111155b610f0a576040517f08c379a0000000000000000000000000000000000000000000000000000000008152600401610f0190612a91565b60405180910390fd5b8060068381548110610f1f57610f1e6126ee565b5b90600052602060002090600602016002016000828254610f3f9190612ab1565b92505081905550600060068381548110610f5c57610f5b6126ee565b5b90600052602060002090600602016002015403610fb257600060068381548110610f8957610f886126ee565b5b906000526020600020906006020160040160006101000a81548160ff0219169083151502179055505b5050565b600073ffffffffffffffffffffffffffffffffffffffff168273ffffffffffffffffffffffffffffffffffffffff16036110285760006040517fec442f0500000000000000000000000000000000000000000000000000000000815260040161101f919061247d565b60405180910390fd5b61103460008383611bc0565b5050565b60606006805480602002602001604051908101604052809291908181526020016000905b8282101561112757838290600052602060002090600602016040518060c0016040529081600082015481526020016001820160009054906101000a900473ffffffffffffffffffffffffffffffffffffffff1673ffffffffffffffffffffffffffffffffffffffff1673ffffffffffffffffffffffffffffffffffffffff16815260200160028201548152602001600382015481526020016004820160009054906101000a900460ff161515151581526020016005820154815250508152602001906001019061105c565b50505050905090565b611138610cf4565b73ffffffffffffffffffffffffffffffffffffffff166111566109b1565b73ffffffffffffffffffffffffffffffffffffffff16146111b557611179610cf4565b6040517f118cdaa70000000000000000000000000000000000000000000000000000000081526004016111ac919061247d565b60405180910390fd5b565b600073ffffffffffffffffffffffffffffffffffffffff168373ffffffffffffffffffffffffffffffffffffffff16036112295760006040517f96c6fd1e000000000000000000000000000000000000000000000000000000008152600401611220919061247d565b60405180910390fd5b600073ffffffffffffffffffffffffffffffffffffffff168273ffffffffffffffffffffffffffffffffffffffff160361129b5760006040517fec442f05000000000000000000000000000000000000000000000000000000008152600401611292919061247d565b60405180910390fd5b6112a6838383611bc0565b505050565b60006112b78484610b30565b90507fffffffffffffffffffffffffffffffffffffffffffffffffffffffffffffffff81146113395781811015611329578281836040517ffb8f41b2000000000000000000000000000000000000000000000000000000008152600401611320939291906129c2565b60405180910390fd5b611338848484840360006119e9565b5b50505050565b600073ffffffffffffffffffffffffffffffffffffffff168273ffffffffffffffffffffffffffffffffffffffff16036113b15760006040517f96c6fd1e0000000000000000000000000000000000000000000000000000000081526004016113a8919061247d565b60405180910390fd5b6113bd82600083611bc0565b5050565b3373ffffffffffffffffffffffffffffffffffffffff16600683815481106113ec576113eb6126ee565b5b906000526020600020906006020160010160009054906101000a900473ffffffffffffffffffffffffffffffffffffffff1673ffffffffffffffffffffffffffffffffffffffff1614801561147757506001151560068381548110611454576114536126ee565b5b906000526020600020906006020160040160009054906101000a900460ff161515145b80156114835750600081115b6114c2576040517f08c379a00000000000000000000000000000000000000000000000000000000081526004016114b990612b7d565b60405180910390fd5b80600683815481106114d7576114d66126ee565b5b9060005260206000209060060201600301819055505050565b6000600560009054906101000a900473ffffffffffffffffffffffffffffffffffffffff16905081600560006101000a81548173ffffffffffffffffffffffffffffffffffffffff021916908373ffffffffffffffffffffffffffffffffffffffff1602179055508173ffffffffffffffffffffffffffffffffffffffff168173ffffffffffffffffffffffffffffffffffffffff167f8be0079c531659141344cd1fd0a4f28419497f9722a3daafe3b4186f6b6457e060405160405180910390a35050565b3373ffffffffffffffffffffffffffffffffffffffff16600682815481106115e1576115e06126ee565b5b906000526020600020906006020160010160009054906101000a900473ffffffffffffffffffffffffffffffffffffffff1673ffffffffffffffffffffffffffffffffffffffff1614801561166c57506001151560068281548110611649576116486126ee565b5b906000526020600020906006020160040160009054906101000a900460ff161515145b6116ab576040517f08c379a00000000000000000000000000000000000000000000000000000000081526004016116a290612c0f565b60405180910390fd5b6000600682815481106116c1576116c06126ee565b5b906000526020600020906006020160040160006101000a81548160ff02191690831515021790555050565b6000821180156116fc5750600081115b61173b576040517f08c379a000000000000000000000000000000000000000000000000000000000815260040161173290612ca1565b60405180910390fd5b6000600680549050905060006040518060c001604052808381526020013373ffffffffffffffffffffffffffffffffffffffff16815260200185815260200184815260200160011515815260200142815250905060068190806001815401808255809150506001900390600052602060002090600602016000909190919091506000820151816000015560208201518160010160006101000a81548173ffffffffffffffffffffffffffffffffffffffff021916908373ffffffffffffffffffffffffffffffffffffffff160217905550604082015181600201556060820151816003015560808201518160040160006101000a81548160ff02191690831515021790555060a08201518160050155505050505050565b6060806000805b6006805490508110156119de578473ffffffffffffffffffffffffffffffffffffffff1660068281548110611891576118906126ee565b5b906000526020600020906006020160010160009054906101000a900473ffffffffffffffffffffffffffffffffffffffff1673ffffffffffffffffffffffffffffffffffffffff16036119d157600681815481106118f2576118f16126ee565b5b90600052602060002090600602016040518060c0016040529081600082015481526020016001820160009054906101000a900473ffffffffffffffffffffffffffffffffffffffff1673ffffffffffffffffffffffffffffffffffffffff1673ffffffffffffffffffffffffffffffffffffffff16815260200160028201548152602001600382015481526020016004820160009054906101000a900460ff161515151581526020016005820154815250508383815181106119b7576119b66126ee565b5b602002602001018190525081806119cd90612cc1565b9250505b8080600101915050611859565b508192505050919050565b600073ffffffffffffffffffffffffffffffffffffffff168473ffffffffffffffffffffffffffffffffffffffff1603611a5b5760006040517fe602df05000000000000000000000000000000000000000000000000000000008152600401611a52919061247d565b60405180910390fd5b600073ffffffffffffffffffffffffffffffffffffffff168373ffffffffffffffffffffffffffffffffffffffff1603611acd5760006040517f94280d62000000000000000000000000000000000000000000000000000000008152600401611ac4919061247d565b60405180910390fd5b81600160008673ffffffffffffffffffffffffffffffffffffffff1673ffffffffffffffffffffffffffffffffffffffff16815260200190815260200160002060008573ffffffffffffffffffffffffffffffffffffffff1673ffffffffffffffffffffffffffffffffffffffff168152602001908152602001600020819055508015611bba578273ffffffffffffffffffffffffffffffffffffffff168473ffffffffffffffffffffffffffffffffffffffff167f8c5be1e5ebec7d5bd14f71427d1e84f3dd0314c0f7b2291e5b200ac8c7c3b92584604051611bb191906121cb565b60405180910390a35b50505050565b600073ffffffffffffffffffffffffffffffffffffffff168373ffffffffffffffffffffffffffffffffffffffff1603611c12578060026000828254611c06919061298e565b92505081905550611ce5565b60008060008573ffffffffffffffffffffffffffffffffffffffff1673ffffffffffffffffffffffffffffffffffffffff16815260200190815260200160002054905081811015611c9e578381836040517fe450d38c000000000000000000000000000000000000000000000000000000008152600401611c95939291906129c2565b60405180910390fd5b8181036000808673ffffffffffffffffffffffffffffffffffffffff1673ffffffffffffffffffffffffffffffffffffffff16815260200190815260200160002081905550505b600073ffffffffffffffffffffffffffffffffffffffff168273ffffffffffffffffffffffffffffffffffffffff1603611d2e5780600260008282540392505081905550611d7b565b806000808473ffffffffffffffffffffffffffffffffffffffff1673ffffffffffffffffffffffffffffffffffffffff168152602001908152602001600020600082825401925050819055505b8173ffffffffffffffffffffffffffffffffffffffff168373ffffffffffffffffffffffffffffffffffffffff167fddf252ad1be2c89b69c2b068fc378daa952ba7f163c4a11628f55a4df523b3ef83604051611dd891906121cb565b60405180910390a3505050565b6040518060c0016040528060008152602001600073ffffffffffffffffffffffffffffffffffffffff1681526020016000815260200160008152602001600015158152602001600081525090565b600081519050919050565b600082825260208201905092915050565b60005b83811015611e6d578082015181840152602081019050611e52565b60008484015250505050565b6000601f19601f8301169050919050565b6000611e9582611e33565b611e9f8185611e3e565b9350611eaf818560208601611e4f565b611eb881611e79565b840191505092915050565b60006020820190508181036000830152611edd8184611e8a565b905092915050565b6000604051905090565b600080fd5b600080fd5b600073ffffffffffffffffffffffffffffffffffffffff82169050919050565b6000611f2482611ef9565b9050919050565b611f3481611f19565b8114611f3f57600080fd5b50565b600081359050611f5181611f2b565b92915050565b6000819050919050565b611f6a81611f57565b8114611f7557600080fd5b50565b600081359050611f8781611f61565b92915050565b60008060408385031215611fa457611fa3611eef565b5b6000611fb285828601611f42565b9250506020611fc385828601611f78565b9150509250929050565b60008115159050919050565b611fe281611fcd565b82525050565b6000602082019050611ffd6000830184611fd9565b92915050565b6000806040838503121561201a57612019611eef565b5b600061202885828601611f78565b925050602061203985828601611f78565b9150509250929050565b600081519050919050565b600082825260208201905092915050565b6000819050602082019050919050565b61207881611f57565b82525050565b61208781611f19565b82525050565b61209681611fcd565b82525050565b60c0820160008201516120b2600085018261206f565b5060208201516120c5602085018261207e565b5060408201516120d8604085018261206f565b5060608201516120eb606085018261206f565b5060808201516120fe608085018261208d565b5060a082015161211160a085018261206f565b50505050565b6000612123838361209c565b60c08301905092915050565b6000602082019050919050565b600061214782612043565b612151818561204e565b935061215c8361205f565b8060005b8381101561218d5781516121748882612117565b975061217f8361212f565b925050600181019050612160565b5085935050505092915050565b600060208201905081810360008301526121b4818461213c565b905092915050565b6121c581611f57565b82525050565b60006020820190506121e060008301846121bc565b92915050565b600080fd5b7f4e487b7100000000000000000000000000000000000000000000000000000000600052604160045260246000fd5b61222382611e79565b810181811067ffffffffffffffff82111715612242576122416121eb565b5b80604052505050565b6000612255611ee5565b9050612261828261221a565b919050565b600067ffffffffffffffff821115612281576122806121eb565b5b602082029050602081019050919050565b600080fd5b60006122aa6122a584612266565b61224b565b905080838252602082019050602084028301858111156122cd576122cc612292565b5b835b818110156122f657806122e28882611f42565b8452602084019350506020810190506122cf565b5050509392505050565b600082601f830112612315576123146121e6565b5b8135612325848260208601612297565b91505092915050565b6000806040838503121561234557612344611eef565b5b600083013567ffffffffffffffff81111561236357612362611ef4565b5b61236f85828601612300565b925050602061238085828601611f78565b9150509250929050565b6000806000606084860312156123a3576123a2611eef565b5b60006123b186828701611f42565b93505060206123c286828701611f42565b92505060406123d386828701611f78565b9150509250925092565b600060ff82169050919050565b6123f3816123dd565b82525050565b600060208201905061240e60008301846123ea565b92915050565b60006020828403121561242a57612429611eef565b5b600061243884828501611f78565b91505092915050565b60006020828403121561245757612456611eef565b5b600061246584828501611f42565b91505092915050565b61247781611f19565b82525050565b6000602082019050612492600083018461246e565b92915050565b600080604083850312156124af576124ae611eef565b5b60006124bd85828601611f42565b92505060206124ce85828601611f42565b9150509250929050565b7f4e487b7100000000000000000000000000000000000000000000000000000000600052602260045260246000fd5b6000600282049050600182168061251f57607f821691505b602082108103612532576125316124d8565b5b50919050565b7f4e487b7100000000000000000000000000000000000000000000000000000000600052601160045260246000fd5b600061257282611f57565b915061257d83611f57565b925082820261258b81611f57565b915082820484148315176125a2576125a1612538565b5b5092915050565b7f4e487b7100000000000000000000000000000000000000000000000000000000600052601260045260246000fd5b60006125e382611f57565b91506125ee83611f57565b9250826125fe576125fd6125a9565b5b828204905092915050565b7f546f6b656e3a205852502073656e74206d75737420626520677265617465722060008201527f6f7220657175616c20746f206f72646572207072696365000000000000000000602082015250565b6000612665603783611e3e565b915061267082612609565b604082019050919050565b6000602082019050818103600083015261269481612658565b9050919050565b600060a0820190506126b060008301886121bc565b6126bd60208301876121bc565b6126ca60408301866121bc565b6126d7606083018561246e565b6126e4608083018461246e565b9695505050505050565b7f4e487b7100000000000000000000000000000000000000000000000000000000600052603260045260246000fd5b7f546f6b656e3a2063616e6e6f74206275726e206d6f7265207468616e20796f7560008201527f206f776e00000000000000000000000000000000000000000000000000000000602082015250565b6000612779602483611e3e565b91506127848261271d565b604082019050919050565b600060208201905081810360008301526127a88161276c565b9050919050565b7f546f6b656e3a20496e73756666696369656e742062616c616e636520746f206360008201527f6c61696d2064696e696e67206372656469740000000000000000000000000000602082015250565b600061280b603283611e3e565b9150612816826127af565b604082019050919050565b6000602082019050818103600083015261283a816127fe565b9050919050565b600060408201905061285660008301856121bc565b612863602083018461246e565b9392505050565b7f546f6b656e3a2063616e6e6f7420706c61636520616e206f726465722077697460008201527f68206d6f7265207468616e20796f75206f776e00000000000000000000000000602082015250565b60006128c6603383611e3e565b91506128d18261286a565b604082019050919050565b600060208201905081810360008301526128f5816128b9565b9050919050565b7f446f6e6174696f6e20616d6f756e74206d75737420626520677265617465722060008201527f7468616e207a65726f0000000000000000000000000000000000000000000000602082015250565b6000612958602983611e3e565b9150612963826128fc565b604082019050919050565b600060208201905081810360008301526129878161294b565b9050919050565b600061299982611f57565b91506129a483611f57565b92508282019050808211156129bc576129bb612538565b5b92915050565b60006060820190506129d7600083018661246e565b6129e460208301856121bc565b6129f160408301846121bc565b949350505050565b7f5472616461626c653a2074686174206f72646572206973206e6f7420796f757260008201527f732c206f726465722077617320616c72656164792066756c66696c6c6564206f60208201527f7220616d6f756e7420697320696e76616c696400000000000000000000000000604082015250565b6000612a7b605383611e3e565b9150612a86826129f9565b606082019050919050565b60006020820190508181036000830152612aaa81612a6e565b9050919050565b6000612abc82611f57565b9150612ac783611f57565b9250828203905081811115612adf57612ade612538565b5b92915050565b7f5472616461626c653a2074686174206f72646572206973206e6f7420796f757260008201527f732c206f726465722077617320616c72656164792066756c66696c6c6564206f60208201527f7220707269636520697320696e76616c69640000000000000000000000000000604082015250565b6000612b67605283611e3e565b9150612b7282612ae5565b606082019050919050565b60006020820190508181036000830152612b9681612b5a565b9050919050565b7f5472616461626c653a2074686174206f72646572206973206e6f7420796f757260008201527f73206f72206f726465722077617320616c72656164792066756c66696c6c6564602082015250565b6000612bf9604083611e3e565b9150612c0482612b9d565b604082019050919050565b60006020820190508181036000830152612c2881612bec565b9050919050565b7f5472616461626c653a20616d6f756e7420616e64207072696365206d7573742060008201527f626520706f73697469766520616e64206e6f74206e756c6c0000000000000000602082015250565b6000612c8b603883611e3e565b9150612c9682612c2f565b604082019050919050565b60006020820190508181036000830152612cba81612c7e565b9050919050565b6000612ccc82611f57565b91507fffffffffffffffffffffffffffffffffffffffffffffffffffffffffffffffff8203612cfe57612cfd612538565b5b60018201905091905056fea2646970667358221220a6ef06fa80f81368ee5e22043004b2c9c510f363c19f6098e82638e5613017be64736f6c634300081c0033",
  "linkReferences": {},
  "deployedLinkReferences": {}
}