{
  "_format": "hh-sol-artifact-1",
  "contractName": "DinnerCreditsToken",
  "sourceName": "contracts/DinnerTokenContract.sol",
  "abi": [
    {
      "inputs": [
        {
          "internalType": "address",
          "name": "vaultAddress",
          "type": "address"
        }
      ],
      "stateMutability": "nonpayable",
      "type": "constructor"
    },
    {
      "inputs": [
        {
          "internalType": "address",
          "name": "spender",
          "type": "address"
        },
        {
          "internalType": "uint256",
          "name": "allowance",
          "type": "uint256"
        },
        {
          "internalType": "uint256",
          "name": "needed",
          "type": "uint256"
        }
      ],
      "name": "ERC20InsufficientAllowance",
      "type": "error"
    },
    {
      "inputs": [
        {
          "internalType": "address",
          "name": "sender",
          "type": "address"
        },
        {
          "internalType": "uint256",
          "name": "balance",
          "type": "uint256"
        },
        {
          "internalType": "uint256",
          "name": "needed",
          "type": "uint256"
        }
      ],
      "name": "ERC20InsufficientBalance",
      "type": "error"
    },
    {
      "inputs": [
        {
          "internalType": "address",
          "name": "approver",
          "type": "address"
        }
      ],
      "name": "ERC20InvalidApprover",
      "type": "error"
    },
    {
      "inputs": [
        {
          "internalType": "address",
          "name": "receiver",
          "type": "address"
        }
      ],
      "name": "ERC20InvalidReceiver",
      "type": "error"
    },
    {
      "inputs": [
        {
          "internalType": "address",
          "name": "sender",
          "type": "address"
        }
      ],
      "name": "ERC20InvalidSender",
      "type": "error"
    },
    {
      "inputs": [
        {
          "internalType": "address",
          "name": "spender",
          "type": "address"
        }
      ],
      "name": "ERC20InvalidSpender",
      "type": "error"
    },
    {
      "inputs": [
        {
          "internalType": "address",
          "name": "owner",
          "type": "address"
        }
      ],
      "name": "OwnableInvalidOwner",
      "type": "error"
    },
    {
      "inputs": [
        {
          "internalType": "address",
          "name": "account",
          "type": "address"
        }
      ],
      "name": "OwnableUnauthorizedAccount",
      "type": "error"
    },
    {
      "inputs": [],
      "name": "ReentrancyGuardReentrantCall",
      "type": "error"
    },
    {
      "anonymous": false,
      "inputs": [
        {
          "indexed": true,
          "internalType": "address",
          "name": "owner",
          "type": "address"
        },
        {
          "indexed": true,
          "internalType": "address",
          "name": "spender",
          "type": "address"
        },
        {
          "indexed": false,
          "internalType": "uint256",
          "name": "value",
          "type": "uint256"
        }
      ],
      "name": "Approval",
      "type": "event"
    },
    {
      "anonymous": false,
      "inputs": [
        {
          "indexed": true,
          "internalType": "address",
          "name": "claimer",
          "type": "address"
        }
      ],
      "name": "CreditClaimed",
      "type": "event"
    },
    {
      "anonymous": false,
      "inputs": [
        {
          "indexed": true,
          "internalType": "address",
          "name": "donor",
          "type": "address"
        },
        {
          "indexed": false,
          "internalType": "uint256",
          "name": "amount",
          "type": "uint256"
        }
      ],
      "name": "DonationReceived",
      "type": "event"
    },
    {
      "anonymous": false,
      "inputs": [
        {
          "indexed": true,
          "internalType": "uint256",
          "name": "id",
          "type": "uint256"
        },
        {
          "indexed": true,
          "internalType": "address",
          "name": "seller",
          "type": "address"
        },
        {
          "indexed": false,
          "internalType": "uint256",
          "name": "amount",
          "type": "uint256"
        },
        {
          "indexed": false,
          "internalType": "uint256",
          "name": "price",
          "type": "uint256"
        }
      ],
      "name": "OrderPlaced",
      "type": "event"
    },
    {
      "anonymous": false,
      "inputs": [
        {
          "indexed": true,
          "internalType": "address",
          "name": "previousOwner",
          "type": "address"
        },
        {
          "indexed": true,
          "internalType": "address",
          "name": "newOwner",
          "type": "address"
        }
      ],
      "name": "OwnershipTransferred",
      "type": "event"
    },
    {
      "anonymous": false,
      "inputs": [
        {
          "indexed": true,
          "internalType": "uint256",
          "name": "id",
          "type": "uint256"
        },
        {
          "indexed": true,
          "internalType": "address",
          "name": "seller",
          "type": "address"
        },
        {
          "indexed": true,
          "internalType": "address",
          "name": "buyer",
          "type": "address"
        },
        {
          "indexed": false,
          "internalType": "uint256",
          "name": "amount",
          "type": "uint256"
        },
        {
          "indexed": false,
          "internalType": "uint256",
          "name": "price",
          "type": "uint256"
        }
      ],
      "name": "Selled",
      "type": "event"
    },
    {
      "anonymous": false,
      "inputs": [
        {
          "indexed": true,
          "internalType": "address",
          "name": "from",
          "type": "address"
        },
        {
          "indexed": true,
          "internalType": "address",
          "name": "to",
          "type": "address"
        },
        {
          "indexed": false,
          "internalType": "uint256",
          "name": "value",
          "type": "uint256"
        }
      ],
      "name": "Transfer",
      "type": "event"
    },
    {
      "anonymous": false,
      "inputs": [
        {
          "indexed": true,
          "internalType": "uint256",
          "name": "id",
          "type": "uint256"
        },
        {
          "indexed": false,
          "internalType": "uint256",
          "name": "newAmount",
          "type": "uint256"
        }
      ],
      "name": "UpdatedOrderAmount",
      "type": "event"
    },
    {
      "anonymous": false,
      "inputs": [
        {
          "indexed": true,
          "internalType": "uint256",
          "name": "id",
          "type": "uint256"
        },
        {
          "indexed": false,
          "internalType": "uint256",
          "name": "newPrice",
          "type": "uint256"
        }
      ],
      "name": "UpdatedOrderPrice",
      "type": "event"
    },
    {
      "inputs": [],
      "name": "DONATION_WALLET",
      "outputs": [
        {
          "internalType": "address",
          "name": "",
          "type": "address"
        }
      ],
      "stateMutability": "view",
      "type": "function"
    },
    {
      "inputs": [
        {
          "internalType": "address",
          "name": "owner",
          "type": "address"
        },
        {
          "internalType": "address",
          "name": "spender",
          "type": "address"
        }
      ],
      "name": "allowance",
      "outputs": [
        {
          "internalType": "uint256",
          "name": "",
          "type": "uint256"
        }
      ],
      "stateMutability": "view",
      "type": "function"
    },
    {
      "inputs": [
        {
          "internalType": "address",
          "name": "spender",
          "type": "address"
        },
        {
          "internalType": "uint256",
          "name": "value",
          "type": "uint256"
        }
      ],
      "name": "approve",
      "outputs": [
        {
          "internalType": "bool",
          "name": "",
          "type": "bool"
        }
      ],
      "stateMutability": "nonpayable",
      "type": "function"
    },
    {
      "inputs": [
        {
          "internalType": "address",
          "name": "account",
          "type": "address"
        }
      ],
      "name": "balanceOf",
      "outputs": [
        {
          "internalType": "uint256",
          "name": "",
          "type": "uint256"
        }
      ],
      "stateMutability": "view",
      "type": "function"
    },
    {
      "inputs": [
        {
          "internalType": "uint256",
          "name": "amount",
          "type": "uint256"
        },
        {
          "internalType": "uint256",
          "name": "price",
          "type": "uint256"
        }
      ],
      "name": "bulkBuy",
      "outputs": [],
      "stateMutability": "payable",
      "type": "function"
    },
    {
      "inputs": [
        {
          "internalType": "address",
          "name": "account",
          "type": "address"
        },
        {
          "internalType": "uint256",
          "name": "amount",
          "type": "uint256"
        }
      ],
      "name": "burn",
      "outputs": [
        {
          "internalType": "bool",
          "name": "",
          "type": "bool"
        }
      ],
      "stateMutability": "nonpayable",
      "type": "function"
    },
    {
      "inputs": [
        {
          "internalType": "uint256",
          "name": "orderId",
          "type": "uint256"
        },
        {
          "internalType": "uint256",
          "name": "amount",
          "type": "uint256"
        }
      ],
      "name": "buyOrder",
      "outputs": [],
      "stateMutability": "payable",
      "type": "function"
    },
    {
      "inputs": [],
      "name": "claimDiningCredit",
      "outputs": [],
      "stateMutability": "nonpayable",
      "type": "function"
    },
    {
      "inputs": [],
      "name": "decimals",
      "outputs": [
        {
          "internalType": "uint8",
          "name": "",
          "type": "uint8"
        }
      ],
      "stateMutability": "view",
      "type": "function"
    },
    {
      "inputs": [
        {
          "internalType": "address[]",
          "name": "accounts",
          "type": "address[]"
        },
        {
          "internalType": "uint256",
          "name": "amount",
          "type": "uint256"
        }
      ],
      "name": "distribute",
      "outputs": [
        {
          "internalType": "bool",
          "name": "",
          "type": "bool"
        }
      ],
      "stateMutability": "nonpayable",
      "type": "function"
    },
    {
      "inputs": [
        {
          "internalType": "uint256",
          "name": "amount",
          "type": "uint256"
        }
      ],
      "name": "donate",
      "outputs": [],
      "stateMutability": "nonpayable",
      "type": "function"
    },
    {
      "inputs": [
        {
          "internalType": "uint256",
          "name": "orderId",
          "type": "uint256"
        }
      ],
      "name": "getOrder",
      "outputs": [
        {
          "components": [
            {
              "internalType": "uint256",
              "name": "id",
              "type": "uint256"
            },
            {
              "internalType": "address",
              "name": "seller",
              "type": "address"
            },
            {
              "internalType": "uint256",
              "name": "amount",
              "type": "uint256"
            },
            {
              "internalType": "uint256",
              "name": "price",
              "type": "uint256"
            },
            {
              "internalType": "bool",
              "name": "active",
              "type": "bool"
            }
          ],
          "internalType": "struct Tradable.SellOrder",
          "name": "",
          "type": "tuple"
        }
      ],
      "stateMutability": "view",
      "type": "function"
    },
    {
      "inputs": [],
      "name": "getTotalDonations",
      "outputs": [
        {
          "internalType": "uint256",
          "name": "",
          "type": "uint256"
        }
      ],
      "stateMutability": "view",
      "type": "function"
    },
    {
      "inputs": [],
      "name": "listOrders",
      "outputs": [
        {
          "components": [
            {
              "internalType": "uint256",
              "name": "id",
              "type": "uint256"
            },
            {
              "internalType": "address",
              "name": "seller",
              "type": "address"
            },
            {
              "internalType": "uint256",
              "name": "amount",
              "type": "uint256"
            },
            {
              "internalType": "uint256",
              "name": "price",
              "type": "uint256"
            },
            {
              "internalType": "bool",
              "name": "active",
              "type": "bool"
            }
          ],
          "internalType": "struct Tradable.SellOrder[]",
          "name": "",
          "type": "tuple[]"
        }
      ],
      "stateMutability": "view",
      "type": "function"
    },
    {
      "inputs": [],
      "name": "listOrdersByUser",
      "outputs": [
        {
          "components": [
            {
              "internalType": "uint256",
              "name": "id",
              "type": "uint256"
            },
            {
              "internalType": "address",
              "name": "seller",
              "type": "address"
            },
            {
              "internalType": "uint256",
              "name": "amount",
              "type": "uint256"
            },
            {
              "internalType": "uint256",
              "name": "price",
              "type": "uint256"
            },
            {
              "internalType": "bool",
              "name": "active",
              "type": "bool"
            }
          ],
          "internalType": "struct Tradable.SellOrder[]",
          "name": "",
          "type": "tuple[]"
        }
      ],
      "stateMutability": "view",
      "type": "function"
    },
    {
      "inputs": [
        {
          "internalType": "address",
          "name": "account",
          "type": "address"
        },
        {
          "internalType": "uint256",
          "name": "amount",
          "type": "uint256"
        }
      ],
      "name": "mint",
      "outputs": [
        {
          "internalType": "bool",
          "name": "",
          "type": "bool"
        }
      ],
      "stateMutability": "nonpayable",
      "type": "function"
    },
    {
      "inputs": [],
      "name": "name",
      "outputs": [
        {
          "internalType": "string",
          "name": "",
          "type": "string"
        }
      ],
      "stateMutability": "view",
      "type": "function"
    },
    {
      "inputs": [],
      "name": "owner",
      "outputs": [
        {
          "internalType": "address",
          "name": "",
          "type": "address"
        }
      ],
      "stateMutability": "view",
      "type": "function"
    },
    {
      "inputs": [
        {
          "internalType": "uint256",
          "name": "amount",
          "type": "uint256"
        },
        {
          "internalType": "uint256",
          "name": "price",
          "type": "uint256"
        }
      ],
      "name": "placeSellOrder",
      "outputs": [],
      "stateMutability": "nonpayable",
      "type": "function"
    },
    {
      "inputs": [
        {
          "internalType": "uint256",
          "name": "orderId",
          "type": "uint256"
        }
      ],
      "name": "removeOrder",
      "outputs": [],
      "stateMutability": "nonpayable",
      "type": "function"
    },
    {
      "inputs": [],
      "name": "renounceOwnership",
      "outputs": [],
      "stateMutability": "nonpayable",
      "type": "function"
    },
    {
      "inputs": [],
      "name": "symbol",
      "outputs": [
        {
          "internalType": "string",
          "name": "",
          "type": "string"
        }
      ],
      "stateMutability": "view",
      "type": "function"
    },
    {
      "inputs": [],
      "name": "totalDonations",
      "outputs": [
        {
          "internalType": "uint256",
          "name": "",
          "type": "uint256"
        }
      ],
      "stateMutability": "view",
      "type": "function"
    },
    {
      "inputs": [],
      "name": "totalSupply",
      "outputs": [
        {
          "internalType": "uint256",
          "name": "",
          "type": "uint256"
        }
      ],
      "stateMutability": "view",
      "type": "function"
    },
    {
      "inputs": [
        {
          "internalType": "address",
          "name": "to",
          "type": "address"
        },
        {
          "internalType": "uint256",
          "name": "value",
          "type": "uint256"
        }
      ],
      "name": "transfer",
      "outputs": [
        {
          "internalType": "bool",
          "name": "",
          "type": "bool"
        }
      ],
      "stateMutability": "nonpayable",
      "type": "function"
    },
    {
      "inputs": [
        {
          "internalType": "address",
          "name": "from",
          "type": "address"
        },
        {
          "internalType": "address",
          "name": "to",
          "type": "address"
        },
        {
          "internalType": "uint256",
          "name": "value",
          "type": "uint256"
        }
      ],
      "name": "transferFrom",
      "outputs": [
        {
          "internalType": "bool",
          "name": "",
          "type": "bool"
        }
      ],
      "stateMutability": "nonpayable",
      "type": "function"
    },
    {
      "inputs": [
        {
          "internalType": "address",
          "name": "newOwner",
          "type": "address"
        }
      ],
      "name": "transferOwnership",
      "outputs": [],
      "stateMutability": "nonpayable",
      "type": "function"
    },
    {
      "inputs": [
        {
          "internalType": "uint256",
          "name": "orderId",
          "type": "uint256"
        },
        {
          "internalType": "uint256",
          "name": "newPrice",
          "type": "uint256"
        }
      ],
      "name": "updateOrderPrice",
      "outputs": [],
      "stateMutability": "nonpayable",
      "type": "function"
    }
  ],
  "bytecode": "0x608060405234801561001057600080fd5b50604051613f1f380380613f1f833981810160405281019061003291906102bb565b336040518060400160405280600d81526020017f44696e6e657220546f6b656e73000000000000000000000000000000000000008152506040518060400160405280600681526020017f44494e4e4552000000000000000000000000000000000000000000000000000081525081600390816100ae9190610538565b5080600490816100be9190610538565b505050600073ffffffffffffffffffffffffffffffffffffffff168173ffffffffffffffffffffffffffffffffffffffff16036101335760006040517f1e4fbdf700000000000000000000000000000000000000000000000000000000815260040161012a9190610619565b60405180910390fd5b6101428161019260201b60201c565b50600160098190555080600b60006101000a81548173ffffffffffffffffffffffffffffffffffffffff021916908373ffffffffffffffffffffffffffffffffffffffff16021790555050610634565b6000600560009054906101000a900473ffffffffffffffffffffffffffffffffffffffff16905081600560006101000a81548173ffffffffffffffffffffffffffffffffffffffff021916908373ffffffffffffffffffffffffffffffffffffffff1602179055508173ffffffffffffffffffffffffffffffffffffffff168173ffffffffffffffffffffffffffffffffffffffff167f8be0079c531659141344cd1fd0a4f28419497f9722a3daafe3b4186f6b6457e060405160405180910390a35050565b600080fd5b600073ffffffffffffffffffffffffffffffffffffffff82169050919050565b60006102888261025d565b9050919050565b6102988161027d565b81146102a357600080fd5b50565b6000815190506102b58161028f565b92915050565b6000602082840312156102d1576102d0610258565b5b60006102df848285016102a6565b91505092915050565b600081519050919050565b7f4e487b7100000000000000000000000000000000000000000000000000000000600052604160045260246000fd5b7f4e487b7100000000000000000000000000000000000000000000000000000000600052602260045260246000fd5b6000600282049050600182168061036957607f821691505b60208210810361037c5761037b610322565b5b50919050565b60008190508160005260206000209050919050565b60006020601f8301049050919050565b600082821b905092915050565b6000600883026103e47fffffffffffffffffffffffffffffffffffffffffffffffffffffffffffffffff826103a7565b6103ee86836103a7565b95508019841693508086168417925050509392505050565b6000819050919050565b6000819050919050565b600061043561043061042b84610406565b610410565b610406565b9050919050565b6000819050919050565b61044f8361041a565b61046361045b8261043c565b8484546103b4565b825550505050565b600090565b61047861046b565b610483818484610446565b505050565b5b818110156104a75761049c600082610470565b600181019050610489565b5050565b601f8211156104ec576104bd81610382565b6104c684610397565b810160208510156104d5578190505b6104e96104e185610397565b830182610488565b50505b505050565b600082821c905092915050565b600061050f600019846008026104f1565b1980831691505092915050565b600061052883836104fe565b9150826002028217905092915050565b610541826102e8565b67ffffffffffffffff81111561055a576105596102f3565b5b6105648254610351565b61056f8282856104ab565b600060209050601f8311600181146105a25760008415610590578287015190505b61059a858261051c565b865550610602565b601f1984166105b086610382565b60005b828110156105d8578489015182556001820191506020850194506020810190506105b3565b868310156105f557848901516105f1601f8916826104fe565b8355505b6001600288020188555050505b505050505050565b6106138161027d565b82525050565b600060208201905061062e600083018461060a565b92915050565b6138dc806106436000396000f3fe6080604052600436106101b75760003560e01c8063728982af116100ec578063a9059cbb1161008a578063de25809f11610064578063de25809f1461061a578063de2ed89314610645578063f14faf6f14610670578063f2fde38b14610699576101b7565b8063a9059cbb14610563578063d09ef241146105a0578063dd62ed3e146105dd576101b7565b806395d89b41116100c657806395d89b41146104a95780639645337a146104d45780639dc29fac146104fd578063a4406bcd1461053a576101b7565b8063728982af1461043c578063777c658f146104535780638da5cb5b1461047e576101b7565b8063211bd1941161015957806340c10f191161013357806340c10f19146103825780635e9e78d0146103bf57806370a08231146103e8578063715018a614610425576101b7565b8063211bd194146102fe57806323b872dd1461031a578063313ce56714610357576101b7565b8063142ee8d811610195578063142ee8d81461024f578063176091f41461026b57806318160ddd146102965780631826c119146102c1576101b7565b806306fdde03146101bc578063092f9d79146101e7578063095ea7b314610212575b600080fd5b3480156101c857600080fd5b506101d16106c2565b6040516101de91906127b7565b60405180910390f35b3480156101f357600080fd5b506101fc610754565b604051610209919061281a565b60405180910390f35b34801561021e57600080fd5b50610239600480360381019061023491906128ab565b61075a565b6040516102469190612906565b60405180910390f35b61026960048036038101906102649190612921565b61077d565b005b34801561027757600080fd5b5061028061095b565b60405161028d9190612aa5565b60405180910390f35b3480156102a257600080fd5b506102ab61096a565b6040516102b89190612ad6565b60405180910390f35b3480156102cd57600080fd5b506102e860048036038101906102e39190612c39565b610974565b6040516102f59190612906565b60405180910390f35b61031860048036038101906103139190612921565b6109ce565b005b34801561032657600080fd5b50610341600480360381019061033c9190612c95565b610bb5565b60405161034e9190612906565b60405180910390f35b34801561036357600080fd5b5061036c610be4565b6040516103799190612d04565b60405180910390f35b34801561038e57600080fd5b506103a960048036038101906103a491906128ab565b610bed565b6040516103b69190612906565b60405180910390f35b3480156103cb57600080fd5b506103e660048036038101906103e19190612921565b610c0b565b005b3480156103f457600080fd5b5061040f600480360381019061040a9190612d1f565b610c19565b60405161041c9190612ad6565b60405180910390f35b34801561043157600080fd5b5061043a610c61565b005b34801561044857600080fd5b50610451610c75565b005b34801561045f57600080fd5b50610468610d2f565b6040516104759190612ad6565b60405180910390f35b34801561048a57600080fd5b50610493610d3e565b6040516104a0919061281a565b60405180910390f35b3480156104b557600080fd5b506104be610d68565b6040516104cb91906127b7565b60405180910390f35b3480156104e057600080fd5b506104fb60048036038101906104f69190612d4c565b610dfa565b005b34801561050957600080fd5b50610524600480360381019061051f91906128ab565b610e22565b6040516105319190612906565b60405180910390f35b34801561054657600080fd5b50610561600480360381019061055c9190612921565b610e40565b005b34801561056f57600080fd5b5061058a600480360381019061058591906128ab565b610ea3565b6040516105979190612906565b60405180910390f35b3480156105ac57600080fd5b506105c760048036038101906105c29190612d4c565b610ec6565b6040516105d49190612de1565b60405180910390f35b3480156105e957600080fd5b5061060460048036038101906105ff9190612dfc565b610ede565b6040516106119190612ad6565b60405180910390f35b34801561062657600080fd5b5061062f610f65565b60405161063c9190612aa5565b60405180910390f35b34801561065157600080fd5b5061065a610f75565b6040516106679190612ad6565b60405180910390f35b34801561067c57600080fd5b5061069760048036038101906106929190612d4c565b610f7b565b005b3480156106a557600080fd5b506106c060048036038101906106bb9190612d1f565b610f87565b005b6060600380546106d190612e6b565b80601f01602080910402602001604051908101604052809291908181526020018280546106fd90612e6b565b801561074a5780601f1061071f5761010080835404028352916020019161074a565b820191906000526020600020905b81548152906001019060200180831161072d57829003601f168201915b5050505050905090565b61dead81565b60008061076561100d565b9050610772818585611015565b600191505092915050565b610785611027565b60006107908361106d565b905060008282606001516107a49190612ecb565b9050803410156107e9576040517f08c379a00000000000000000000000000000000000000000000000000000000081526004016107e090612f7f565b60405180910390fd5b60006107f3610d3e565b905060006064346108049190612fce565b9050600081346108149190612fff565b9050600b60009054906101000a900473ffffffffffffffffffffffffffffffffffffffff1673ffffffffffffffffffffffffffffffffffffffff1663f340fa018287602001516040518363ffffffff1660e01b8152600401610876919061281a565b6000604051808303818588803b15801561088f57600080fd5b505af11580156108a3573d6000803e3d6000fd5b5050505050600b60009054906101000a900473ffffffffffffffffffffffffffffffffffffffff1673ffffffffffffffffffffffffffffffffffffffff1663f340fa0183856040518363ffffffff1660e01b8152600401610904919061281a565b6000604051808303818588803b15801561091d57600080fd5b505af1158015610931573d6000803e3d6000fd5b50505050506109408787611138565b61094a33876114ac565b505050505061095761152e565b5050565b6060610965611538565b905090565b6000600254905090565b600061097e611626565b60005b83518110156109c3576109b6610995610d3e565b8583815181106109a8576109a7613033565b5b6020026020010151856116ad565b8080600101915050610981565b506001905092915050565b6109d6611027565b60008211610a19576040517f08c379a0000000000000000000000000000000000000000000000000000000008152600401610a10906130d4565b60405180910390fd5b60008111610a5c576040517f08c379a0000000000000000000000000000000000000000000000000000000008152600401610a5390613166565b60405180910390fd5b60006007600083815260200190815260200160002090506000818054905011610aba576040517f08c379a0000000000000000000000000000000000000000000000000000000008152600401610ab1906131f8565b60405180910390fd5b600083905060005b6000821115610ba6576000838281548110610ae057610adf613033565b5b906000526020600020906005020190508060040160009054906101000a900460ff161580610b5d57503373ffffffffffffffffffffffffffffffffffffffff168160010160009054906101000a900473ffffffffffffffffffffffffffffffffffffffff1673ffffffffffffffffffffffffffffffffffffffff16145b15610b685750610ac2565b600081600201548411610b7b5783610b81565b81600201545b9050610b9182600001548261077d565b8084610b9d9190612fff565b93505050610ac2565b505050610bb161152e565b5050565b600080610bc061100d565b9050610bcd8582856117a1565b610bd88585856116ad565b60019150509392505050565b60006012905090565b6000610bf7611626565b610c0183836114ac565b6001905092915050565b610c158282611835565b5050565b60008060008373ffffffffffffffffffffffffffffffffffffffff1673ffffffffffffffffffffffffffffffffffffffff168152602001908152602001600020549050919050565b610c69611626565b610c736000611a0a565b565b610c7d611027565b670de0b6b3a7640000610c8f33610c19565b1015610cd0576040517f08c379a0000000000000000000000000000000000000000000000000000000008152600401610cc79061328a565b60405180910390fd5b610ce233670de0b6b3a7640000611ad0565b3373ffffffffffffffffffffffffffffffffffffffff167fd19e02cae4a7e5f7a9adfd1d8c3343167f44487390dbc266598f33c017981c6f60405160405180910390a2610d2d61152e565b565b6000610d39611b52565b905090565b6000600560009054906101000a900473ffffffffffffffffffffffffffffffffffffffff16905090565b606060048054610d7790612e6b565b80601f0160208091040260200160405190810160405280929190818152602001828054610da390612e6b565b8015610df05780601f10610dc557610100808354040283529160200191610df0565b820191906000526020600020905b815481529060010190602001808311610dd357829003601f168201915b5050505050905090565b610e0381611b5c565b6000610e0e8261106d565b9050610e1e3382604001516114ac565b5050565b6000610e2c611626565b610e368383611ad0565b6001905092915050565b610e4933610c19565b821115610e8b576040517f08c379a0000000000000000000000000000000000000000000000000000000008152600401610e829061331c565b60405180910390fd5b610e953383611ad0565b610e9f8282611cc9565b5050565b600080610eae61100d565b9050610ebb8185856116ad565b600191505092915050565b610ece6126e0565b610ed78261106d565b9050919050565b6000600160008473ffffffffffffffffffffffffffffffffffffffff1673ffffffffffffffffffffffffffffffffffffffff16815260200190815260200160002060008373ffffffffffffffffffffffffffffffffffffffff1673ffffffffffffffffffffffffffffffffffffffff16815260200190815260200160002054905092915050565b6060610f703361205b565b905090565b600a5481565b610f8481612188565b50565b610f8f611626565b600073ffffffffffffffffffffffffffffffffffffffff168173ffffffffffffffffffffffffffffffffffffffff16036110015760006040517f1e4fbdf7000000000000000000000000000000000000000000000000000000008152600401610ff8919061281a565b60405180910390fd5b61100a81611a0a565b50565b600033905090565b61102283838360016122e4565b505050565b600260095403611063576040517f3ee5aeb500000000000000000000000000000000000000000000000000000000815260040160405180910390fd5b6002600981905550565b6110756126e0565b6006828154811061108957611088613033565b5b90600052602060002090600502016040518060a0016040529081600082015481526020016001820160009054906101000a900473ffffffffffffffffffffffffffffffffffffffff1673ffffffffffffffffffffffffffffffffffffffff1673ffffffffffffffffffffffffffffffffffffffff16815260200160028201548152602001600382015481526020016004820160009054906101000a900460ff1615151515815250509050919050565b3373ffffffffffffffffffffffffffffffffffffffff166006838154811061116357611162613033565b5b906000526020600020906005020160010160009054906101000a900473ffffffffffffffffffffffffffffffffffffffff1673ffffffffffffffffffffffffffffffffffffffff16036111eb576040517f08c379a00000000000000000000000000000000000000000000000000000000081526004016111e2906133ae565b60405180910390fd5b600115156006838154811061120357611202613033565b5b906000526020600020906005020160040160009054906101000a900460ff16151514611264576040517f08c379a000000000000000000000000000000000000000000000000000000000815260040161125b90613440565b60405180910390fd5b6006828154811061127857611277613033565b5b9060005260206000209060050201600201548111156112cc576040517f08c379a00000000000000000000000000000000000000000000000000000000081526004016112c3906134d2565b60405180910390fd5b80600683815481106112e1576112e0613033565b5b906000526020600020906005020160020160008282546113019190612fff565b9250508190555060006006838154811061131e5761131d613033565b5b906000526020600020906005020160020154036113785760006006838154811061134b5761134a613033565b5b906000526020600020906005020160040160006101000a81548160ff0219169083151502179055506113d6565b817f77b55f9e1287f00eecbb02dc56c525807beb51821d1d6cfe4447ba6fa3d84ed1600684815481106113ae576113ad613033565b5b9060005260206000209060050201600201546040516113cd9190612ad6565b60405180910390a25b3373ffffffffffffffffffffffffffffffffffffffff166006838154811061140157611400613033565b5b906000526020600020906005020160010160009054906101000a900473ffffffffffffffffffffffffffffffffffffffff1673ffffffffffffffffffffffffffffffffffffffff16837f7bb118c21a52fdd89f2c9037c19a28625e6b133d6e59f24c55c1a93d2edae00384600687815481106114805761147f613033565b5b9060005260206000209060050201600301546040516114a09291906134f2565b60405180910390a45050565b600073ffffffffffffffffffffffffffffffffffffffff168273ffffffffffffffffffffffffffffffffffffffff160361151e5760006040517fec442f05000000000000000000000000000000000000000000000000000000008152600401611515919061281a565b60405180910390fd5b61152a600083836124bb565b5050565b6001600981905550565b60606006805480602002602001604051908101604052809291908181526020016000905b8282101561161d57838290600052602060002090600502016040518060a0016040529081600082015481526020016001820160009054906101000a900473ffffffffffffffffffffffffffffffffffffffff1673ffffffffffffffffffffffffffffffffffffffff1673ffffffffffffffffffffffffffffffffffffffff16815260200160028201548152602001600382015481526020016004820160009054906101000a900460ff1615151515815250508152602001906001019061155c565b50505050905090565b61162e61100d565b73ffffffffffffffffffffffffffffffffffffffff1661164c610d3e565b73ffffffffffffffffffffffffffffffffffffffff16146116ab5761166f61100d565b6040517f118cdaa70000000000000000000000000000000000000000000000000000000081526004016116a2919061281a565b60405180910390fd5b565b600073ffffffffffffffffffffffffffffffffffffffff168373ffffffffffffffffffffffffffffffffffffffff160361171f5760006040517f96c6fd1e000000000000000000000000000000000000000000000000000000008152600401611716919061281a565b60405180910390fd5b600073ffffffffffffffffffffffffffffffffffffffff168273ffffffffffffffffffffffffffffffffffffffff16036117915760006040517fec442f05000000000000000000000000000000000000000000000000000000008152600401611788919061281a565b60405180910390fd5b61179c8383836124bb565b505050565b60006117ad8484610ede565b90507fffffffffffffffffffffffffffffffffffffffffffffffffffffffffffffffff811461182f578181101561181f578281836040517ffb8f41b20000000000000000000000000000000000000000000000000000000081526004016118169392919061351b565b60405180910390fd5b61182e848484840360006122e4565b5b50505050565b3373ffffffffffffffffffffffffffffffffffffffff16600683815481106118605761185f613033565b5b906000526020600020906005020160010160009054906101000a900473ffffffffffffffffffffffffffffffffffffffff1673ffffffffffffffffffffffffffffffffffffffff16146118e8576040517f08c379a00000000000000000000000000000000000000000000000000000000081526004016118df906135c4565b60405180910390fd5b6001151560068381548110611900576118ff613033565b5b906000526020600020906005020160040160009054906101000a900460ff16151514611961576040517f08c379a000000000000000000000000000000000000000000000000000000000815260040161195890613440565b60405180910390fd5b600081116119a4576040517f08c379a000000000000000000000000000000000000000000000000000000000815260040161199b90613656565b60405180910390fd5b80600683815481106119b9576119b8613033565b5b906000526020600020906005020160030181905550817f9ce826527fa519a8bb184fb8f8402f35e26217289c08ec6015016a9f1b6bb37c826040516119fe9190612ad6565b60405180910390a25050565b6000600560009054906101000a900473ffffffffffffffffffffffffffffffffffffffff16905081600560006101000a81548173ffffffffffffffffffffffffffffffffffffffff021916908373ffffffffffffffffffffffffffffffffffffffff1602179055508173ffffffffffffffffffffffffffffffffffffffff168173ffffffffffffffffffffffffffffffffffffffff167f8be0079c531659141344cd1fd0a4f28419497f9722a3daafe3b4186f6b6457e060405160405180910390a35050565b600073ffffffffffffffffffffffffffffffffffffffff168273ffffffffffffffffffffffffffffffffffffffff1603611b425760006040517f96c6fd1e000000000000000000000000000000000000000000000000000000008152600401611b39919061281a565b60405180910390fd5b611b4e826000836124bb565b5050565b6000600a54905090565b3373ffffffffffffffffffffffffffffffffffffffff1660068281548110611b8757611b86613033565b5b906000526020600020906005020160010160009054906101000a900473ffffffffffffffffffffffffffffffffffffffff1673ffffffffffffffffffffffffffffffffffffffff1614611c0f576040517f08c379a0000000000000000000000000000000000000000000000000000000008152600401611c06906135c4565b60405180910390fd5b6001151560068281548110611c2757611c26613033565b5b906000526020600020906005020160040160009054906101000a900460ff16151514611c88576040517f08c379a0000000000000000000000000000000000000000000000000000000008152600401611c7f90613440565b60405180910390fd5b600060068281548110611c9e57611c9d613033565b5b906000526020600020906005020160040160006101000a81548160ff02191690831515021790555050565b60008211611d0c576040517f08c379a0000000000000000000000000000000000000000000000000000000008152600401611d039061370e565b60405180910390fd5b60008111611d4f576040517f08c379a0000000000000000000000000000000000000000000000000000000008152600401611d4690613656565b60405180910390fd5b6000600680549050905060006040518060a001604052808381526020013373ffffffffffffffffffffffffffffffffffffffff168152602001858152602001848152602001600115158152509050600860003373ffffffffffffffffffffffffffffffffffffffff1673ffffffffffffffffffffffffffffffffffffffff1681526020019081526020016000208190806001815401808255809150506001900390600052602060002090600502016000909190919091506000820151816000015560208201518160010160006101000a81548173ffffffffffffffffffffffffffffffffffffffff021916908373ffffffffffffffffffffffffffffffffffffffff160217905550604082015181600201556060820151816003015560808201518160040160006101000a81548160ff0219169083151502179055505050600760008481526020019081526020016000208190806001815401808255809150506001900390600052602060002090600502016000909190919091506000820151816000015560208201518160010160006101000a81548173ffffffffffffffffffffffffffffffffffffffff021916908373ffffffffffffffffffffffffffffffffffffffff160217905550604082015181600201556060820151816003015560808201518160040160006101000a81548160ff021916908315150217905550505060068190806001815401808255809150506001900390600052602060002090600502016000909190919091506000820151816000015560208201518160010160006101000a81548173ffffffffffffffffffffffffffffffffffffffff021916908373ffffffffffffffffffffffffffffffffffffffff160217905550604082015181600201556060820151816003015560808201518160040160006101000a81548160ff02191690831515021790555050503373ffffffffffffffffffffffffffffffffffffffff16827f59827a9898740dc87f0e01c9f27ae034611bb083f06d7eb3efaef27336e3c4dd868660405161204d9291906134f2565b60405180910390a350505050565b6060600860008373ffffffffffffffffffffffffffffffffffffffff1673ffffffffffffffffffffffffffffffffffffffff168152602001908152602001600020805480602002602001604051908101604052809291908181526020016000905b8282101561217d57838290600052602060002090600502016040518060a0016040529081600082015481526020016001820160009054906101000a900473ffffffffffffffffffffffffffffffffffffffff1673ffffffffffffffffffffffffffffffffffffffff1673ffffffffffffffffffffffffffffffffffffffff16815260200160028201548152602001600382015481526020016004820160009054906101000a900460ff161515151581525050815260200190600101906120bc565b505050509050919050565b600081116121cb576040517f08c379a00000000000000000000000000000000000000000000000000000000081526004016121c2906137a0565b60405180910390fd5b600061dead73ffffffffffffffffffffffffffffffffffffffff16826040516121f3906137f1565b60006040518083038185875af1925050503d8060008114612230576040519150601f19603f3d011682016040523d82523d6000602084013e612235565b606091505b5050905080612279576040517f08c379a000000000000000000000000000000000000000000000000000000000815260040161227090613852565b60405180910390fd5b81600a600082825461228b9190613872565b925050819055503373ffffffffffffffffffffffffffffffffffffffff167f264f630d9efa0d07053a31163641d9fcc0adafc9d9e76f1c37c2ce3a558d2c52346040516122d89190612ad6565b60405180910390a25050565b600073ffffffffffffffffffffffffffffffffffffffff168473ffffffffffffffffffffffffffffffffffffffff16036123565760006040517fe602df0500000000000000000000000000000000000000000000000000000000815260040161234d919061281a565b60405180910390fd5b600073ffffffffffffffffffffffffffffffffffffffff168373ffffffffffffffffffffffffffffffffffffffff16036123c85760006040517f94280d620000000000000000000000000000000000000000000000000000000081526004016123bf919061281a565b60405180910390fd5b81600160008673ffffffffffffffffffffffffffffffffffffffff1673ffffffffffffffffffffffffffffffffffffffff16815260200190815260200160002060008573ffffffffffffffffffffffffffffffffffffffff1673ffffffffffffffffffffffffffffffffffffffff1681526020019081526020016000208190555080156124b5578273ffffffffffffffffffffffffffffffffffffffff168473ffffffffffffffffffffffffffffffffffffffff167f8c5be1e5ebec7d5bd14f71427d1e84f3dd0314c0f7b2291e5b200ac8c7c3b925846040516124ac9190612ad6565b60405180910390a35b50505050565b600073ffffffffffffffffffffffffffffffffffffffff168373ffffffffffffffffffffffffffffffffffffffff160361250d5780600260008282546125019190613872565b925050819055506125e0565b60008060008573ffffffffffffffffffffffffffffffffffffffff1673ffffffffffffffffffffffffffffffffffffffff16815260200190815260200160002054905081811015612599578381836040517fe450d38c0000000000000000000000000000000000000000000000000000000081526004016125909392919061351b565b60405180910390fd5b8181036000808673ffffffffffffffffffffffffffffffffffffffff1673ffffffffffffffffffffffffffffffffffffffff16815260200190815260200160002081905550505b600073ffffffffffffffffffffffffffffffffffffffff168273ffffffffffffffffffffffffffffffffffffffff16036126295780600260008282540392505081905550612676565b806000808473ffffffffffffffffffffffffffffffffffffffff1673ffffffffffffffffffffffffffffffffffffffff168152602001908152602001600020600082825401925050819055505b8173ffffffffffffffffffffffffffffffffffffffff168373ffffffffffffffffffffffffffffffffffffffff167fddf252ad1be2c89b69c2b068fc378daa952ba7f163c4a11628f55a4df523b3ef836040516126d39190612ad6565b60405180910390a3505050565b6040518060a0016040528060008152602001600073ffffffffffffffffffffffffffffffffffffffff16815260200160008152602001600081526020016000151581525090565b600081519050919050565b600082825260208201905092915050565b60005b83811015612761578082015181840152602081019050612746565b60008484015250505050565b6000601f19601f8301169050919050565b600061278982612727565b6127938185612732565b93506127a3818560208601612743565b6127ac8161276d565b840191505092915050565b600060208201905081810360008301526127d1818461277e565b905092915050565b600073ffffffffffffffffffffffffffffffffffffffff82169050919050565b6000612804826127d9565b9050919050565b612814816127f9565b82525050565b600060208201905061282f600083018461280b565b92915050565b6000604051905090565b600080fd5b600080fd5b612852816127f9565b811461285d57600080fd5b50565b60008135905061286f81612849565b92915050565b6000819050919050565b61288881612875565b811461289357600080fd5b50565b6000813590506128a58161287f565b92915050565b600080604083850312156128c2576128c161283f565b5b60006128d085828601612860565b92505060206128e185828601612896565b9150509250929050565b60008115159050919050565b612900816128eb565b82525050565b600060208201905061291b60008301846128f7565b92915050565b600080604083850312156129385761293761283f565b5b600061294685828601612896565b925050602061295785828601612896565b9150509250929050565b600081519050919050565b600082825260208201905092915050565b6000819050602082019050919050565b61299681612875565b82525050565b6129a5816127f9565b82525050565b6129b4816128eb565b82525050565b60a0820160008201516129d0600085018261298d565b5060208201516129e3602085018261299c565b5060408201516129f6604085018261298d565b506060820151612a09606085018261298d565b506080820151612a1c60808501826129ab565b50505050565b6000612a2e83836129ba565b60a08301905092915050565b6000602082019050919050565b6000612a5282612961565b612a5c818561296c565b9350612a678361297d565b8060005b83811015612a98578151612a7f8882612a22565b9750612a8a83612a3a565b925050600181019050612a6b565b5085935050505092915050565b60006020820190508181036000830152612abf8184612a47565b905092915050565b612ad081612875565b82525050565b6000602082019050612aeb6000830184612ac7565b92915050565b600080fd5b7f4e487b7100000000000000000000000000000000000000000000000000000000600052604160045260246000fd5b612b2e8261276d565b810181811067ffffffffffffffff82111715612b4d57612b4c612af6565b5b80604052505050565b6000612b60612835565b9050612b6c8282612b25565b919050565b600067ffffffffffffffff821115612b8c57612b8b612af6565b5b602082029050602081019050919050565b600080fd5b6000612bb5612bb084612b71565b612b56565b90508083825260208201905060208402830185811115612bd857612bd7612b9d565b5b835b81811015612c015780612bed8882612860565b845260208401935050602081019050612bda565b5050509392505050565b600082601f830112612c2057612c1f612af1565b5b8135612c30848260208601612ba2565b91505092915050565b60008060408385031215612c5057612c4f61283f565b5b600083013567ffffffffffffffff811115612c6e57612c6d612844565b5b612c7a85828601612c0b565b9250506020612c8b85828601612896565b9150509250929050565b600080600060608486031215612cae57612cad61283f565b5b6000612cbc86828701612860565b9350506020612ccd86828701612860565b9250506040612cde86828701612896565b9150509250925092565b600060ff82169050919050565b612cfe81612ce8565b82525050565b6000602082019050612d196000830184612cf5565b92915050565b600060208284031215612d3557612d3461283f565b5b6000612d4384828501612860565b91505092915050565b600060208284031215612d6257612d6161283f565b5b6000612d7084828501612896565b91505092915050565b60a082016000820151612d8f600085018261298d565b506020820151612da2602085018261299c565b506040820151612db5604085018261298d565b506060820151612dc8606085018261298d565b506080820151612ddb60808501826129ab565b50505050565b600060a082019050612df66000830184612d79565b92915050565b60008060408385031215612e1357612e1261283f565b5b6000612e2185828601612860565b9250506020612e3285828601612860565b9150509250929050565b7f4e487b7100000000000000000000000000000000000000000000000000000000600052602260045260246000fd5b60006002820490506001821680612e8357607f821691505b602082108103612e9657612e95612e3c565b5b50919050565b7f4e487b7100000000000000000000000000000000000000000000000000000000600052601160045260246000fd5b6000612ed682612875565b9150612ee183612875565b9250828202612eef81612875565b91508282048414831517612f0657612f05612e9c565b5b5092915050565b7f546f6b656e3a205852502073656e74206d75737420626520677265617465722060008201527f6f7220657175616c20746f206f72646572207072696365000000000000000000602082015250565b6000612f69603783612732565b9150612f7482612f0d565b604082019050919050565b60006020820190508181036000830152612f9881612f5c565b9050919050565b7f4e487b7100000000000000000000000000000000000000000000000000000000600052601260045260246000fd5b6000612fd982612875565b9150612fe483612875565b925082612ff457612ff3612f9f565b5b828204905092915050565b600061300a82612875565b915061301583612875565b925082820390508181111561302d5761302c612e9c565b5b92915050565b7f4e487b7100000000000000000000000000000000000000000000000000000000600052603260045260246000fd5b7f546f6b656e3a20546f74616c20616d6f756e74206d757374206265206772656160008201527f746572207468616e207a65726f00000000000000000000000000000000000000602082015250565b60006130be602d83612732565b91506130c982613062565b604082019050919050565b600060208201905081810360008301526130ed816130b1565b9050919050565b7f546f6b656e3a205072696365206d75737420626520677265617465722074686160008201527f6e207a65726f0000000000000000000000000000000000000000000000000000602082015250565b6000613150602683612732565b915061315b826130f4565b604082019050919050565b6000602082019050818103600083015261317f81613143565b9050919050565b7f546f6b656e3a204e6f2073656c6c206f726465727320617661696c61626c652060008201527f6174207468652073706563696669656420707269636500000000000000000000602082015250565b60006131e2603683612732565b91506131ed82613186565b604082019050919050565b60006020820190508181036000830152613211816131d5565b9050919050565b7f546f6b656e3a20496e73756666696369656e742062616c616e636520746f206360008201527f6c61696d2064696e696e67206372656469740000000000000000000000000000602082015250565b6000613274603283612732565b915061327f82613218565b604082019050919050565b600060208201905081810360008301526132a381613267565b9050919050565b7f546f6b656e3a2063616e6e6f7420706c61636520616e206f726465722077697460008201527f68206d6f7265207468616e20796f75206f776e00000000000000000000000000602082015250565b6000613306603383612732565b9150613311826132aa565b604082019050919050565b60006020820190508181036000830152613335816132f9565b9050919050565b7f5472616461626c653a20796f752063616e6e6f742062757920796f7572206f7760008201527f6e206f7264657200000000000000000000000000000000000000000000000000602082015250565b6000613398602783612732565b91506133a38261333c565b604082019050919050565b600060208201905081810360008301526133c78161338b565b9050919050565b7f5472616461626c653a206f726465722077617320616c72656164792072656d6f60008201527f766564206f722066756c66696c6c656400000000000000000000000000000000602082015250565b600061342a603083612732565b9150613435826133ce565b604082019050919050565b600060208201905081810360008301526134598161341d565b9050919050565b7f5472616461626c653a2063616e6e6f742062757920616d6f756e74206772656160008201527f746572207468616e20706c61636564206f6e206f726465722e00000000000000602082015250565b60006134bc603983612732565b91506134c782613460565b604082019050919050565b600060208201905081810360008301526134eb816134af565b9050919050565b60006040820190506135076000830185612ac7565b6135146020830184612ac7565b9392505050565b6000606082019050613530600083018661280b565b61353d6020830185612ac7565b61354a6040830184612ac7565b949350505050565b7f5472616461626c653a2074686174206f72646572206973206e6f7420796f757260008201527f7300000000000000000000000000000000000000000000000000000000000000602082015250565b60006135ae602183612732565b91506135b982613552565b604082019050919050565b600060208201905081810360008301526135dd816135a1565b9050919050565b7f5472616261626c653a20796f75206f7264657220746f6b656e2070726963652060008201527f6d75737420626520706f737469766520616e64206e6f74206e756c6c00000000602082015250565b6000613640603c83612732565b915061364b826135e4565b604082019050919050565b6000602082019050818103600083015261366f81613633565b9050919050565b7f5472616461626c653a20796f752063616e206f6e6c7920706c6163652061207360008201527f656c6c206f72646572206f66206120706f736974697665206e6f6e206e756c6c60208201527f20616d6f756e7400000000000000000000000000000000000000000000000000604082015250565b60006136f8604783612732565b915061370382613676565b606082019050919050565b60006020820190508181036000830152613727816136eb565b9050919050565b7f446f6e6174696f6e20616d6f756e74206d75737420626520677265617465722060008201527f7468616e207a65726f0000000000000000000000000000000000000000000000602082015250565b600061378a602983612732565b91506137958261372e565b604082019050919050565b600060208201905081810360008301526137b98161377d565b9050919050565b600081905092915050565b50565b60006137db6000836137c0565b91506137e6826137cb565b600082019050919050565b60006137fc826137ce565b9150819050919050565b7f446f6e6174696f6e207472616e73666572206661696c65640000000000000000600082015250565b600061383c601883612732565b915061384782613806565b602082019050919050565b6000602082019050818103600083015261386b8161382f565b9050919050565b600061387d82612875565b915061388883612875565b92508282019050808211156138a05761389f612e9c565b5b9291505056fea264697066735822122039005bc2c364804d6f66d5c551b5ef84ab01119e8386938854e05ba8571da01d64736f6c634300081c0033",
  "linkReferences": {},
  "deployedLinkReferences": {}
}