{
  "_format": "hh-sol-artifact-1",
  "contractName": "CentralizedVault",
  "sourceName": "contracts/CentralizedVault.sol",
  "abi": [
    {
      "inputs": [],
      "stateMutability": "nonpayable",
      "type": "constructor"
    },
    {
      "inputs": [
        {
          "internalType": "address",
          "name": "user",
          "type": "address"
        }
      ],
      "name": "deposit",
      "outputs": [],
      "stateMutability": "payable",
      "type": "function"
    },
    {
      "inputs": [
        {
          "internalType": "address",
          "name": "user",
          "type": "address"
        }
      ],
      "name": "getBalance",
      "outputs": [
        {
          "internalType": "uint256",
          "name": "",
          "type": "uint256"
        }
      ],
      "stateMutability": "view",
      "type": "function"
    },
    {
      "inputs": [
        {
          "internalType": "uint256",
          "name": "amount",
          "type": "uint256"
        }
      ],
      "name": "withdraw",
      "outputs": [],
      "stateMutability": "nonpayable",
      "type": "function"
    },
    {
      "stateMutability": "payable",
      "type": "receive"
    }
  ],
  "bytecode": "0x6080604052348015600f57600080fd5b506106e38061001f6000396000f3fe6080604052600436106100385760003560e01c80632e1a7d4d1461004d578063f340fa0114610076578063f8b2cb4f1461009257610048565b3661004857610046336100cf565b005b600080fd5b34801561005957600080fd5b50610074600480360381019061006f9190610373565b61016a565b005b610090600480360381019061008b91906103fe565b6100cf565b005b34801561009e57600080fd5b506100b960048036038101906100b491906103fe565b6102f0565b6040516100c6919061043a565b60405180910390f35b60003411610112576040517f08c379a0000000000000000000000000000000000000000000000000000000008152600401610109906104d8565b60405180910390fd5b346000808373ffffffffffffffffffffffffffffffffffffffff1673ffffffffffffffffffffffffffffffffffffffff16815260200190815260200160002060008282546101609190610527565b9250508190555050565b806000803373ffffffffffffffffffffffffffffffffffffffff1673ffffffffffffffffffffffffffffffffffffffff1681526020019081526020016000205410156101eb576040517f08c379a00000000000000000000000000000000000000000000000000000000081526004016101e2906105a7565b60405180910390fd5b806000803373ffffffffffffffffffffffffffffffffffffffff1673ffffffffffffffffffffffffffffffffffffffff168152602001908152602001600020600082825461023991906105c7565b9250508190555060003373ffffffffffffffffffffffffffffffffffffffff16826040516102669061062c565b60006040518083038185875af1925050503d80600081146102a3576040519150601f19603f3d011682016040523d82523d6000602084013e6102a8565b606091505b50509050806102ec576040517f08c379a00000000000000000000000000000000000000000000000000000000081526004016102e39061068d565b60405180910390fd5b5050565b60008060008373ffffffffffffffffffffffffffffffffffffffff1673ffffffffffffffffffffffffffffffffffffffff168152602001908152602001600020549050919050565b600080fd5b6000819050919050565b6103508161033d565b811461035b57600080fd5b50565b60008135905061036d81610347565b92915050565b60006020828403121561038957610388610338565b5b60006103978482850161035e565b91505092915050565b600073ffffffffffffffffffffffffffffffffffffffff82169050919050565b60006103cb826103a0565b9050919050565b6103db816103c0565b81146103e657600080fd5b50565b6000813590506103f8816103d2565b92915050565b60006020828403121561041457610413610338565b5b6000610422848285016103e9565b91505092915050565b6104348161033d565b82525050565b600060208201905061044f600083018461042b565b92915050565b600082825260208201905092915050565b7f5661756c743a204465706f73697420616d6f756e74206d75737420626520677260008201527f6561746572207468616e207a65726f0000000000000000000000000000000000602082015250565b60006104c2602f83610455565b91506104cd82610466565b604082019050919050565b600060208201905081810360008301526104f1816104b5565b9050919050565b7f4e487b7100000000000000000000000000000000000000000000000000000000600052601160045260246000fd5b60006105328261033d565b915061053d8361033d565b9250828201905080821115610555576105546104f8565b5b92915050565b7f5661756c743a20496e73756666696369656e742062616c616e63650000000000600082015250565b6000610591601b83610455565b915061059c8261055b565b602082019050919050565b600060208201905081810360008301526105c081610584565b9050919050565b60006105d28261033d565b91506105dd8361033d565b92508282039050818111156105f5576105f46104f8565b5b92915050565b600081905092915050565b50565b60006106166000836105fb565b915061062182610606565b600082019050919050565b600061063782610609565b9150819050919050565b7f5661756c743a205472616e73666572206661696c656400000000000000000000600082015250565b6000610677601683610455565b915061068282610641565b602082019050919050565b600060208201905081810360008301526106a68161066a565b905091905056fea2646970667358221220a5792faed515ec37ce6c498eb9592b112da884730a6586a70db3a67bd6b21e2264736f6c634300081c0033",
  "linkReferences": {},
  "deployedLinkReferences": {}
}