{
  "_format": "hh-sol-artifact-1",
  "contractName": "CentralizedVault",
  "sourceName": "contracts/CentralizedVault.sol",
  "abi": [
    {
      "inputs": [],
      "stateMutability": "nonpayable",
      "type": "constructor"
    },
    {
      "inputs": [
        {
          "internalType": "address",
          "name": "owner",
          "type": "address"
        }
      ],
      "name": "OwnableInvalidOwner",
      "type": "error"
    },
    {
      "inputs": [
        {
          "internalType": "address",
          "name": "account",
          "type": "address"
        }
      ],
      "name": "OwnableUnauthorizedAccount",
      "type": "error"
    },
    {
      "inputs": [],
      "name": "ReentrancyGuardReentrantCall",
      "type": "error"
    },
    {
      "anonymous": false,
      "inputs": [
        {
          "indexed": true,
          "internalType": "address",
          "name": "from",
          "type": "address"
        },
        {
          "indexed": false,
          "internalType": "uint256",
          "name": "amount",
          "type": "uint256"
        }
      ],
      "name": "Deposit",
      "type": "event"
    },
    {
      "anonymous": false,
      "inputs": [
        {
          "indexed": true,
          "internalType": "address",
          "name": "previousOwner",
          "type": "address"
        },
        {
          "indexed": true,
          "internalType": "address",
          "name": "newOwner",
          "type": "address"
        }
      ],
      "name": "OwnershipTransferred",
      "type": "event"
    },
    {
      "anonymous": false,
      "inputs": [
        {
          "indexed": true,
          "internalType": "address",
          "name": "to",
          "type": "address"
        },
        {
          "indexed": false,
          "internalType": "uint256",
          "name": "amount",
          "type": "uint256"
        }
      ],
      "name": "Withdrawal",
      "type": "event"
    },
    {
      "inputs": [
        {
          "internalType": "address",
          "name": "user",
          "type": "address"
        }
      ],
      "name": "deposit",
      "outputs": [],
      "stateMutability": "payable",
      "type": "function"
    },
    {
      "inputs": [
        {
          "internalType": "address",
          "name": "user",
          "type": "address"
        }
      ],
      "name": "getBalance",
      "outputs": [
        {
          "internalType": "uint256",
          "name": "",
          "type": "uint256"
        }
      ],
      "stateMutability": "view",
      "type": "function"
    },
    {
      "inputs": [],
      "name": "owner",
      "outputs": [
        {
          "internalType": "address",
          "name": "",
          "type": "address"
        }
      ],
      "stateMutability": "view",
      "type": "function"
    },
    {
      "inputs": [],
      "name": "renounceOwnership",
      "outputs": [],
      "stateMutability": "nonpayable",
      "type": "function"
    },
    {
      "inputs": [
        {
          "internalType": "address",
          "name": "newOwner",
          "type": "address"
        }
      ],
      "name": "transferOwnership",
      "outputs": [],
      "stateMutability": "nonpayable",
      "type": "function"
    },
    {
      "inputs": [
        {
          "internalType": "uint256",
          "name": "amount",
          "type": "uint256"
        }
      ],
      "name": "withdraw",
      "outputs": [],
      "stateMutability": "nonpayable",
      "type": "function"
    }
  ],
  "bytecode": "0x608060405234801561001057600080fd5b5033600073ffffffffffffffffffffffffffffffffffffffff168173ffffffffffffffffffffffffffffffffffffffff16036100845760006040517f1e4fbdf700000000000000000000000000000000000000000000000000000000815260040161007b91906101a5565b60405180910390fd5b610093816100a060201b60201c565b50600180819055506101c0565b60008060009054906101000a900473ffffffffffffffffffffffffffffffffffffffff169050816000806101000a81548173ffffffffffffffffffffffffffffffffffffffff021916908373ffffffffffffffffffffffffffffffffffffffff1602179055508173ffffffffffffffffffffffffffffffffffffffff168173ffffffffffffffffffffffffffffffffffffffff167f8be0079c531659141344cd1fd0a4f28419497f9722a3daafe3b4186f6b6457e060405160405180910390a35050565b600073ffffffffffffffffffffffffffffffffffffffff82169050919050565b600061018f82610164565b9050919050565b61019f81610184565b82525050565b60006020820190506101ba6000830184610196565b92915050565b610a9a806101cf6000396000f3fe6080604052600436106100555760003560e01c80632e1a7d4d1461005a578063715018a6146100835780638da5cb5b1461009a578063f2fde38b146100c5578063f340fa01146100ee578063f8b2cb4f1461010a575b600080fd5b34801561006657600080fd5b50610081600480360381019061007c9190610700565b610147565b005b34801561008f57600080fd5b5061009861032d565b005b3480156100a657600080fd5b506100af610341565b6040516100bc919061076e565b60405180910390f35b3480156100d157600080fd5b506100ec60048036038101906100e791906107b5565b61036a565b005b610108600480360381019061010391906107b5565b6103f0565b005b34801561011657600080fd5b50610131600480360381019061012c91906107b5565b6104da565b60405161013e91906107f1565b60405180910390f35b61014f610523565b80600260003373ffffffffffffffffffffffffffffffffffffffff1673ffffffffffffffffffffffffffffffffffffffff1681526020019081526020016000205410156101d1576040517f08c379a00000000000000000000000000000000000000000000000000000000081526004016101c890610869565b60405180910390fd5b80600260003373ffffffffffffffffffffffffffffffffffffffff1673ffffffffffffffffffffffffffffffffffffffff168152602001908152602001600020600082825461022091906108b8565b9250508190555060003373ffffffffffffffffffffffffffffffffffffffff168260405161024d9061091d565b60006040518083038185875af1925050503d806000811461028a576040519150601f19603f3d011682016040523d82523d6000602084013e61028f565b606091505b50509050806102d3576040517f08c379a00000000000000000000000000000000000000000000000000000000081526004016102ca9061097e565b60405180910390fd5b3373ffffffffffffffffffffffffffffffffffffffff167f7fcf532c15f0a6db0bd6d0e038bea71d30d808c7d98cb3bf7268a95bf5081b658360405161031991906107f1565b60405180910390a25061032a610569565b50565b610335610572565b61033f60006105f9565b565b60008060009054906101000a900473ffffffffffffffffffffffffffffffffffffffff16905090565b610372610572565b600073ffffffffffffffffffffffffffffffffffffffff168173ffffffffffffffffffffffffffffffffffffffff16036103e45760006040517f1e4fbdf70000000000000000000000000000000000000000000000000000000081526004016103db919061076e565b60405180910390fd5b6103ed816105f9565b50565b60003411610433576040517f08c379a000000000000000000000000000000000000000000000000000000000815260040161042a90610a10565b60405180910390fd5b34600260008373ffffffffffffffffffffffffffffffffffffffff1673ffffffffffffffffffffffffffffffffffffffff16815260200190815260200160002060008282546104829190610a30565b925050819055508073ffffffffffffffffffffffffffffffffffffffff167fe1fffcc4923d04b559f4d29a8bfc6cda04eb5b0d3c460751c2402c5c5cc9109c346040516104cf91906107f1565b60405180910390a250565b6000600260008373ffffffffffffffffffffffffffffffffffffffff1673ffffffffffffffffffffffffffffffffffffffff168152602001908152602001600020549050919050565b60026001540361055f576040517f3ee5aeb500000000000000000000000000000000000000000000000000000000815260040160405180910390fd5b6002600181905550565b60018081905550565b61057a6106bd565b73ffffffffffffffffffffffffffffffffffffffff16610598610341565b73ffffffffffffffffffffffffffffffffffffffff16146105f7576105bb6106bd565b6040517f118cdaa70000000000000000000000000000000000000000000000000000000081526004016105ee919061076e565b60405180910390fd5b565b60008060009054906101000a900473ffffffffffffffffffffffffffffffffffffffff169050816000806101000a81548173ffffffffffffffffffffffffffffffffffffffff021916908373ffffffffffffffffffffffffffffffffffffffff1602179055508173ffffffffffffffffffffffffffffffffffffffff168173ffffffffffffffffffffffffffffffffffffffff167f8be0079c531659141344cd1fd0a4f28419497f9722a3daafe3b4186f6b6457e060405160405180910390a35050565b600033905090565b600080fd5b6000819050919050565b6106dd816106ca565b81146106e857600080fd5b50565b6000813590506106fa816106d4565b92915050565b600060208284031215610716576107156106c5565b5b6000610724848285016106eb565b91505092915050565b600073ffffffffffffffffffffffffffffffffffffffff82169050919050565b60006107588261072d565b9050919050565b6107688161074d565b82525050565b6000602082019050610783600083018461075f565b92915050565b6107928161074d565b811461079d57600080fd5b50565b6000813590506107af81610789565b92915050565b6000602082840312156107cb576107ca6106c5565b5b60006107d9848285016107a0565b91505092915050565b6107eb816106ca565b82525050565b600060208201905061080660008301846107e2565b92915050565b600082825260208201905092915050565b7f5661756c743a20496e73756666696369656e742062616c616e63650000000000600082015250565b6000610853601b8361080c565b915061085e8261081d565b602082019050919050565b6000602082019050818103600083015261088281610846565b9050919050565b7f4e487b7100000000000000000000000000000000000000000000000000000000600052601160045260246000fd5b60006108c3826106ca565b91506108ce836106ca565b92508282039050818111156108e6576108e5610889565b5b92915050565b600081905092915050565b50565b60006109076000836108ec565b9150610912826108f7565b600082019050919050565b6000610928826108fa565b9150819050919050565b7f5661756c743a205472616e73666572206661696c656400000000000000000000600082015250565b600061096860168361080c565b915061097382610932565b602082019050919050565b600060208201905081810360008301526109978161095b565b9050919050565b7f5661756c743a204465706f73697420616d6f756e74206d75737420626520677260008201527f6561746572207468616e207a65726f0000000000000000000000000000000000602082015250565b60006109fa602f8361080c565b9150610a058261099e565b604082019050919050565b60006020820190508181036000830152610a29816109ed565b9050919050565b6000610a3b826106ca565b9150610a46836106ca565b9250828201905080821115610a5e57610a5d610889565b5b9291505056fea2646970667358221220a30060d04a2c795799726d6ddc7b6a13a8b8a43379b7477895bcfa05e1244b4964736f6c634300081c0033",
  "linkReferences": {},
  "deployedLinkReferences": {}
}