{
  "_format": "hh-sol-artifact-1",
  "contractName": "DinnerCreditsToken",
  "sourceName": "contracts/DinnerTokenContract.sol",
  "abi": [
    {
      "inputs": [
        {
          "internalType": "address payable",
          "name": "vaultAddress",
          "type": "address"
        }
      ],
      "stateMutability": "nonpayable",
      "type": "constructor"
    },
    {
      "inputs": [
        {
          "internalType": "address",
          "name": "spender",
          "type": "address"
        },
        {
          "internalType": "uint256",
          "name": "allowance",
          "type": "uint256"
        },
        {
          "internalType": "uint256",
          "name": "needed",
          "type": "uint256"
        }
      ],
      "name": "ERC20InsufficientAllowance",
      "type": "error"
    },
    {
      "inputs": [
        {
          "internalType": "address",
          "name": "sender",
          "type": "address"
        },
        {
          "internalType": "uint256",
          "name": "balance",
          "type": "uint256"
        },
        {
          "internalType": "uint256",
          "name": "needed",
          "type": "uint256"
        }
      ],
      "name": "ERC20InsufficientBalance",
      "type": "error"
    },
    {
      "inputs": [
        {
          "internalType": "address",
          "name": "approver",
          "type": "address"
        }
      ],
      "name": "ERC20InvalidApprover",
      "type": "error"
    },
    {
      "inputs": [
        {
          "internalType": "address",
          "name": "receiver",
          "type": "address"
        }
      ],
      "name": "ERC20InvalidReceiver",
      "type": "error"
    },
    {
      "inputs": [
        {
          "internalType": "address",
          "name": "sender",
          "type": "address"
        }
      ],
      "name": "ERC20InvalidSender",
      "type": "error"
    },
    {
      "inputs": [
        {
          "internalType": "address",
          "name": "spender",
          "type": "address"
        }
      ],
      "name": "ERC20InvalidSpender",
      "type": "error"
    },
    {
      "inputs": [],
      "name": "NotSeller",
      "type": "error"
    },
    {
      "inputs": [],
      "name": "OrderDoesNotExist",
      "type": "error"
    },
    {
      "inputs": [
        {
          "internalType": "address",
          "name": "owner",
          "type": "address"
        }
      ],
      "name": "OwnableInvalidOwner",
      "type": "error"
    },
    {
      "inputs": [
        {
          "internalType": "address",
          "name": "account",
          "type": "address"
        }
      ],
      "name": "OwnableUnauthorizedAccount",
      "type": "error"
    },
    {
      "anonymous": false,
      "inputs": [
        {
          "indexed": true,
          "internalType": "address",
          "name": "owner",
          "type": "address"
        },
        {
          "indexed": true,
          "internalType": "address",
          "name": "spender",
          "type": "address"
        },
        {
          "indexed": false,
          "internalType": "uint256",
          "name": "value",
          "type": "uint256"
        }
      ],
      "name": "Approval",
      "type": "event"
    },
    {
      "anonymous": false,
      "inputs": [
        {
          "indexed": true,
          "internalType": "address",
          "name": "previousOwner",
          "type": "address"
        },
        {
          "indexed": true,
          "internalType": "address",
          "name": "newOwner",
          "type": "address"
        }
      ],
      "name": "OwnershipTransferred",
      "type": "event"
    },
    {
      "anonymous": false,
      "inputs": [
        {
          "indexed": true,
          "internalType": "address",
          "name": "from",
          "type": "address"
        },
        {
          "indexed": true,
          "internalType": "address",
          "name": "to",
          "type": "address"
        },
        {
          "indexed": false,
          "internalType": "uint256",
          "name": "value",
          "type": "uint256"
        }
      ],
      "name": "Transfer",
      "type": "event"
    },
    {
      "inputs": [
        {
          "internalType": "address",
          "name": "owner",
          "type": "address"
        },
        {
          "internalType": "address",
          "name": "spender",
          "type": "address"
        }
      ],
      "name": "allowance",
      "outputs": [
        {
          "internalType": "uint256",
          "name": "",
          "type": "uint256"
        }
      ],
      "stateMutability": "view",
      "type": "function"
    },
    {
      "inputs": [
        {
          "internalType": "address",
          "name": "spender",
          "type": "address"
        },
        {
          "internalType": "uint256",
          "name": "value",
          "type": "uint256"
        }
      ],
      "name": "approve",
      "outputs": [
        {
          "internalType": "bool",
          "name": "",
          "type": "bool"
        }
      ],
      "stateMutability": "nonpayable",
      "type": "function"
    },
    {
      "inputs": [
        {
          "internalType": "address",
          "name": "account",
          "type": "address"
        }
      ],
      "name": "balanceOf",
      "outputs": [
        {
          "internalType": "uint256",
          "name": "",
          "type": "uint256"
        }
      ],
      "stateMutability": "view",
      "type": "function"
    },
    {
      "inputs": [
        {
          "internalType": "uint256",
          "name": "amount",
          "type": "uint256"
        }
      ],
      "name": "burn",
      "outputs": [],
      "stateMutability": "nonpayable",
      "type": "function"
    },
    {
      "inputs": [
        {
          "internalType": "uint256",
          "name": "orderId",
          "type": "uint256"
        },
        {
          "internalType": "uint256",
          "name": "amount",
          "type": "uint256"
        }
      ],
      "name": "buyOrder",
      "outputs": [],
      "stateMutability": "payable",
      "type": "function"
    },
    {
      "inputs": [],
      "name": "claimDiningCredit",
      "outputs": [],
      "stateMutability": "nonpayable",
      "type": "function"
    },
    {
      "inputs": [],
      "name": "decimals",
      "outputs": [
        {
          "internalType": "uint8",
          "name": "",
          "type": "uint8"
        }
      ],
      "stateMutability": "view",
      "type": "function"
    },
    {
      "inputs": [
        {
          "internalType": "address[]",
          "name": "accounts",
          "type": "address[]"
        },
        {
          "internalType": "uint256",
          "name": "amount",
          "type": "uint256"
        }
      ],
      "name": "distribute",
      "outputs": [],
      "stateMutability": "nonpayable",
      "type": "function"
    },
    {
      "inputs": [
        {
          "internalType": "uint256",
          "name": "amount",
          "type": "uint256"
        }
      ],
      "name": "donate",
      "outputs": [],
      "stateMutability": "nonpayable",
      "type": "function"
    },
    {
      "inputs": [],
      "name": "getTotalDonations",
      "outputs": [
        {
          "internalType": "uint256",
          "name": "",
          "type": "uint256"
        }
      ],
      "stateMutability": "view",
      "type": "function"
    },
    {
      "inputs": [],
      "name": "listOrders",
      "outputs": [
        {
          "components": [
            {
              "internalType": "uint256",
              "name": "id",
              "type": "uint256"
            },
            {
              "internalType": "address",
              "name": "seller",
              "type": "address"
            },
            {
              "internalType": "uint256",
              "name": "amount",
              "type": "uint256"
            },
            {
              "internalType": "uint256",
              "name": "price",
              "type": "uint256"
            },
            {
              "internalType": "bool",
              "name": "active",
              "type": "bool"
            },
            {
              "internalType": "uint256",
              "name": "startTime",
              "type": "uint256"
            }
          ],
          "internalType": "struct Tradable.SellOrder[]",
          "name": "",
          "type": "tuple[]"
        }
      ],
      "stateMutability": "view",
      "type": "function"
    },
    {
      "inputs": [
        {
          "internalType": "uint256",
          "name": "amount",
          "type": "uint256"
        }
      ],
      "name": "mint",
      "outputs": [],
      "stateMutability": "nonpayable",
      "type": "function"
    },
    {
      "inputs": [],
      "name": "name",
      "outputs": [
        {
          "internalType": "string",
          "name": "",
          "type": "string"
        }
      ],
      "stateMutability": "view",
      "type": "function"
    },
    {
      "inputs": [],
      "name": "owner",
      "outputs": [
        {
          "internalType": "address",
          "name": "",
          "type": "address"
        }
      ],
      "stateMutability": "view",
      "type": "function"
    },
    {
      "inputs": [
        {
          "internalType": "uint256",
          "name": "amount",
          "type": "uint256"
        },
        {
          "internalType": "uint256",
          "name": "price",
          "type": "uint256"
        }
      ],
      "name": "placeSellOrder",
      "outputs": [],
      "stateMutability": "nonpayable",
      "type": "function"
    },
    {
      "inputs": [
        {
          "internalType": "uint256",
          "name": "orderId",
          "type": "uint256"
        }
      ],
      "name": "removeOrder",
      "outputs": [],
      "stateMutability": "nonpayable",
      "type": "function"
    },
    {
      "inputs": [],
      "name": "renounceOwnership",
      "outputs": [],
      "stateMutability": "nonpayable",
      "type": "function"
    },
    {
      "inputs": [],
      "name": "symbol",
      "outputs": [
        {
          "internalType": "string",
          "name": "",
          "type": "string"
        }
      ],
      "stateMutability": "view",
      "type": "function"
    },
    {
      "inputs": [],
      "name": "totalSupply",
      "outputs": [
        {
          "internalType": "uint256",
          "name": "",
          "type": "uint256"
        }
      ],
      "stateMutability": "view",
      "type": "function"
    },
    {
      "inputs": [
        {
          "internalType": "address",
          "name": "to",
          "type": "address"
        },
        {
          "internalType": "uint256",
          "name": "value",
          "type": "uint256"
        }
      ],
      "name": "transfer",
      "outputs": [
        {
          "internalType": "bool",
          "name": "",
          "type": "bool"
        }
      ],
      "stateMutability": "nonpayable",
      "type": "function"
    },
    {
      "inputs": [
        {
          "internalType": "address",
          "name": "from",
          "type": "address"
        },
        {
          "internalType": "address",
          "name": "to",
          "type": "address"
        },
        {
          "internalType": "uint256",
          "name": "value",
          "type": "uint256"
        }
      ],
      "name": "transferFrom",
      "outputs": [
        {
          "internalType": "bool",
          "name": "",
          "type": "bool"
        }
      ],
      "stateMutability": "nonpayable",
      "type": "function"
    },
    {
      "inputs": [
        {
          "internalType": "address",
          "name": "newOwner",
          "type": "address"
        }
      ],
      "name": "transferOwnership",
      "outputs": [],
      "stateMutability": "nonpayable",
      "type": "function"
    },
    {
      "inputs": [
        {
          "internalType": "uint256",
          "name": "orderId",
          "type": "uint256"
        },
        {
          "internalType": "uint256",
          "name": "newPrice",
          "type": "uint256"
        }
      ],
      "name": "updateOrderPrice",
      "outputs": [],
      "stateMutability": "nonpayable",
      "type": "function"
    }
  ],
  "bytecode": "0x608060405234801561001057600080fd5b50604051613034380380613034833981810160405281019061003291906102b3565b336040518060400160405280600d81526020017f44696e6e657220546f6b656e73000000000000000000000000000000000000008152506040518060400160405280600681526020017f44494e4e4552000000000000000000000000000000000000000000000000000081525081600390816100ae9190610530565b5080600490816100be9190610530565b505050600073ffffffffffffffffffffffffffffffffffffffff168173ffffffffffffffffffffffffffffffffffffffff16036101335760006040517f1e4fbdf700000000000000000000000000000000000000000000000000000000815260040161012a9190610623565b60405180910390fd5b6101428161018a60201b60201c565b5080600760006101000a81548173ffffffffffffffffffffffffffffffffffffffff021916908373ffffffffffffffffffffffffffffffffffffffff1602179055505061063e565b6000600560009054906101000a900473ffffffffffffffffffffffffffffffffffffffff16905081600560006101000a81548173ffffffffffffffffffffffffffffffffffffffff021916908373ffffffffffffffffffffffffffffffffffffffff1602179055508173ffffffffffffffffffffffffffffffffffffffff168173ffffffffffffffffffffffffffffffffffffffff167f8be0079c531659141344cd1fd0a4f28419497f9722a3daafe3b4186f6b6457e060405160405180910390a35050565b600080fd5b600073ffffffffffffffffffffffffffffffffffffffff82169050919050565b600061028082610255565b9050919050565b61029081610275565b811461029b57600080fd5b50565b6000815190506102ad81610287565b92915050565b6000602082840312156102c9576102c8610250565b5b60006102d78482850161029e565b91505092915050565b600081519050919050565b7f4e487b7100000000000000000000000000000000000000000000000000000000600052604160045260246000fd5b7f4e487b7100000000000000000000000000000000000000000000000000000000600052602260045260246000fd5b6000600282049050600182168061036157607f821691505b6020821081036103745761037361031a565b5b50919050565b60008190508160005260206000209050919050565b60006020601f8301049050919050565b600082821b905092915050565b6000600883026103dc7fffffffffffffffffffffffffffffffffffffffffffffffffffffffffffffffff8261039f565b6103e6868361039f565b95508019841693508086168417925050509392505050565b6000819050919050565b6000819050919050565b600061042d610428610423846103fe565b610408565b6103fe565b9050919050565b6000819050919050565b61044783610412565b61045b61045382610434565b8484546103ac565b825550505050565b600090565b610470610463565b61047b81848461043e565b505050565b5b8181101561049f57610494600082610468565b600181019050610481565b5050565b601f8211156104e4576104b58161037a565b6104be8461038f565b810160208510156104cd578190505b6104e16104d98561038f565b830182610480565b50505b505050565b600082821c905092915050565b6000610507600019846008026104e9565b1980831691505092915050565b600061052083836104f6565b9150826002028217905092915050565b610539826102e0565b67ffffffffffffffff811115610552576105516102eb565b5b61055c8254610349565b6105678282856104a3565b600060209050601f83116001811461059a5760008415610588578287015190505b6105928582610514565b8655506105fa565b601f1984166105a88661037a565b60005b828110156105d0578489015182556001820191506020850194506020810190506105ab565b868310156105ed57848901516105e9601f8916826104f6565b8355505b6001600288020188555050505b505050505050565b600061060d82610255565b9050919050565b61061d81610602565b82525050565b60006020820190506106386000830184610614565b92915050565b6129e78061064d6000396000f3fe6080604052600436106101405760003560e01c8063715018a6116100b6578063a0712d681161006f578063a0712d6814610417578063a4406bcd14610440578063a9059cbb14610469578063dd62ed3e146104a6578063f14faf6f146104e3578063f2fde38b1461050c57610140565b8063715018a61461033f578063728982af14610356578063777c658f1461036d5780638da5cb5b1461039857806395d89b41146103c35780639645337a146103ee57610140565b80631826c119116101085780631826c1191461021f57806323b872dd14610248578063313ce5671461028557806342966c68146102b05780635e9e78d0146102d957806370a082311461030257610140565b806306fdde0314610145578063095ea7b314610170578063142ee8d8146101ad578063176091f4146101c957806318160ddd146101f4575b600080fd5b34801561015157600080fd5b5061015a610535565b6040516101679190611c2f565b60405180910390f35b34801561017c57600080fd5b5061019760048036038101906101929190611cf9565b6105c7565b6040516101a49190611d54565b60405180910390f35b6101c760048036038101906101c29190611d6f565b6105ea565b005b3480156101d557600080fd5b506101de610713565b6040516101eb9190611f06565b60405180910390f35b34801561020057600080fd5b50610209610722565b6040516102169190611f37565b60405180910390f35b34801561022b57600080fd5b506102466004803603810190610241919061209a565b61072c565b005b34801561025457600080fd5b5061026f600480360381019061026a91906120f6565b61078c565b60405161027c9190611d54565b60405180910390f35b34801561029157600080fd5b5061029a6107bb565b6040516102a79190612165565b60405180910390f35b3480156102bc57600080fd5b506102d760048036038101906102d29190612180565b6107c4565b005b3480156102e557600080fd5b5061030060048036038101906102fb9190611d6f565b610824565b005b34801561030e57600080fd5b50610329600480360381019061032491906121ad565b610832565b6040516103369190611f37565b60405180910390f35b34801561034b57600080fd5b5061035461087a565b005b34801561036257600080fd5b5061036b61088e565b005b34801561037957600080fd5b506103826108f5565b60405161038f9190611f37565b60405180910390f35b3480156103a457600080fd5b506103ad6108ff565b6040516103ba91906121e9565b60405180910390f35b3480156103cf57600080fd5b506103d8610929565b6040516103e59190611c2f565b60405180910390f35b3480156103fa57600080fd5b5061041560048036038101906104109190612180565b6109bb565b005b34801561042357600080fd5b5061043e60048036038101906104399190612180565b6109e3565b005b34801561044c57600080fd5b5061046760048036038101906104629190611d6f565b6109f8565b005b34801561047557600080fd5b50610490600480360381019061048b9190611cf9565b610a5b565b60405161049d9190611d54565b60405180910390f35b3480156104b257600080fd5b506104cd60048036038101906104c89190612204565b610a7e565b6040516104da9190611f37565b60405180910390f35b3480156104ef57600080fd5b5061050a60048036038101906105059190612180565b610b05565b005b34801561051857600080fd5b50610533600480360381019061052e91906121ad565b610b71565b005b60606003805461054490612273565b80601f016020809104026020016040519081016040528092919081815260200182805461057090612273565b80156105bd5780601f10610592576101008083540402835291602001916105bd565b820191906000526020600020905b8154815290600101906020018083116105a057829003601f168201915b5050505050905090565b6000806105d2610bf7565b90506105df818585610bff565b600191505092915050565b60006105f583610c11565b90506000670de0b6b3a764000083836060015161061291906122d3565b61061c9190612344565b905080341015610661576040517f08c379a0000000000000000000000000000000000000000000000000000000008152600401610658906123e7565b60405180910390fd5b6000349050600760009054906101000a900473ffffffffffffffffffffffffffffffffffffffff1673ffffffffffffffffffffffffffffffffffffffff1663f340fa018285602001516040518363ffffffff1660e01b81526004016106c691906121e9565b6000604051808303818588803b1580156106df57600080fd5b505af11580156106f3573d6000803e3d6000fd5b50505050506107028585610ce6565b61070c3385610eb9565b5050505050565b606061071d610f3b565b905090565b6000600254905090565b610734611033565b61074981835161074491906122d3565b6109e3565b60005b82518110156107875761077a3384838151811061076c5761076b612407565b5b6020026020010151846110ba565b808060010191505061074c565b505050565b600080610797610bf7565b90506107a48582856111ae565b6107af8585856110ba565b60019150509392505050565b60006012905090565b6107cc611033565b806107d633610832565b1015610817576040517f08c379a000000000000000000000000000000000000000000000000000000000815260040161080e906124a8565b60405180910390fd5b6108213382611242565b50565b61082e82826112c4565b5050565b60008060008373ffffffffffffffffffffffffffffffffffffffff1673ffffffffffffffffffffffffffffffffffffffff168152602001908152602001600020549050919050565b610882611033565b61088c60006113f3565b565b670de0b6b3a76400006108a033610832565b10156108e1576040517f08c379a00000000000000000000000000000000000000000000000000000000081526004016108d89061253a565b60405180910390fd5b6108f333670de0b6b3a7640000611242565b565b6000600854905090565b6000600560009054906101000a900473ffffffffffffffffffffffffffffffffffffffff16905090565b60606004805461093890612273565b80601f016020809104026020016040519081016040528092919081815260200182805461096490612273565b80156109b15780601f10610986576101008083540402835291602001916109b1565b820191906000526020600020905b81548152906001019060200180831161099457829003601f168201915b5050505050905090565b6109c4816114b9565b60006109cf82610c11565b90506109df338260400151610eb9565b5050565b6109eb611033565b6109f53382610eb9565b50565b610a0133610832565b821115610a43576040517f08c379a0000000000000000000000000000000000000000000000000000000008152600401610a3a906125cc565b60405180910390fd5b610a4d3383611242565b610a5782826115ef565b5050565b600080610a66610bf7565b9050610a738185856110ba565b600191505092915050565b6000600160008473ffffffffffffffffffffffffffffffffffffffff1673ffffffffffffffffffffffffffffffffffffffff16815260200190815260200160002060008373ffffffffffffffffffffffffffffffffffffffff1673ffffffffffffffffffffffffffffffffffffffff16815260200190815260200160002054905092915050565b60008111610b48576040517f08c379a0000000000000000000000000000000000000000000000000000000008152600401610b3f9061265e565b60405180910390fd5b610b553361dead836110ba565b8060086000828254610b67919061267e565b9250508190555050565b610b79611033565b600073ffffffffffffffffffffffffffffffffffffffff168173ffffffffffffffffffffffffffffffffffffffff1603610beb5760006040517f1e4fbdf7000000000000000000000000000000000000000000000000000000008152600401610be291906121e9565b60405180910390fd5b610bf4816113f3565b50565b600033905090565b610c0c8383836001611755565b505050565b610c19611b51565b60068281548110610c2d57610c2c612407565b5b90600052602060002090600602016040518060c0016040529081600082015481526020016001820160009054906101000a900473ffffffffffffffffffffffffffffffffffffffff1673ffffffffffffffffffffffffffffffffffffffff1673ffffffffffffffffffffffffffffffffffffffff16815260200160028201548152602001600382015481526020016004820160009054906101000a900460ff161515151581526020016005820154815250509050919050565b3373ffffffffffffffffffffffffffffffffffffffff1660068381548110610d1157610d10612407565b5b906000526020600020906006020160010160009054906101000a900473ffffffffffffffffffffffffffffffffffffffff1673ffffffffffffffffffffffffffffffffffffffff1614158015610d9d57506001151560068381548110610d7a57610d79612407565b5b906000526020600020906006020160040160009054906101000a900460ff161515145b8015610dce575060068281548110610db857610db7612407565b5b9060005260206000209060060201600201548111155b610e0d576040517f08c379a0000000000000000000000000000000000000000000000000000000008152600401610e049061274a565b60405180910390fd5b8060068381548110610e2257610e21612407565b5b90600052602060002090600602016002016000828254610e42919061276a565b92505081905550600060068381548110610e5f57610e5e612407565b5b90600052602060002090600602016002015403610eb557600060068381548110610e8c57610e8b612407565b5b906000526020600020906006020160040160006101000a81548160ff0219169083151502179055505b5050565b600073ffffffffffffffffffffffffffffffffffffffff168273ffffffffffffffffffffffffffffffffffffffff1603610f2b5760006040517fec442f05000000000000000000000000000000000000000000000000000000008152600401610f2291906121e9565b60405180910390fd5b610f376000838361192c565b5050565b60606006805480602002602001604051908101604052809291908181526020016000905b8282101561102a57838290600052602060002090600602016040518060c0016040529081600082015481526020016001820160009054906101000a900473ffffffffffffffffffffffffffffffffffffffff1673ffffffffffffffffffffffffffffffffffffffff1673ffffffffffffffffffffffffffffffffffffffff16815260200160028201548152602001600382015481526020016004820160009054906101000a900460ff1615151515815260200160058201548152505081526020019060010190610f5f565b50505050905090565b61103b610bf7565b73ffffffffffffffffffffffffffffffffffffffff166110596108ff565b73ffffffffffffffffffffffffffffffffffffffff16146110b85761107c610bf7565b6040517f118cdaa70000000000000000000000000000000000000000000000000000000081526004016110af91906121e9565b60405180910390fd5b565b600073ffffffffffffffffffffffffffffffffffffffff168373ffffffffffffffffffffffffffffffffffffffff160361112c5760006040517f96c6fd1e00000000000000000000000000000000000000000000000000000000815260040161112391906121e9565b60405180910390fd5b600073ffffffffffffffffffffffffffffffffffffffff168273ffffffffffffffffffffffffffffffffffffffff160361119e5760006040517fec442f0500000000000000000000000000000000000000000000000000000000815260040161119591906121e9565b60405180910390fd5b6111a983838361192c565b505050565b60006111ba8484610a7e565b90507fffffffffffffffffffffffffffffffffffffffffffffffffffffffffffffffff811461123c578181101561122c578281836040517ffb8f41b20000000000000000000000000000000000000000000000000000000081526004016112239392919061279e565b60405180910390fd5b61123b84848484036000611755565b5b50505050565b600073ffffffffffffffffffffffffffffffffffffffff168273ffffffffffffffffffffffffffffffffffffffff16036112b45760006040517f96c6fd1e0000000000000000000000000000000000000000000000000000000081526004016112ab91906121e9565b60405180910390fd5b6112c08260008361192c565b5050565b3373ffffffffffffffffffffffffffffffffffffffff16600683815481106112ef576112ee612407565b5b906000526020600020906006020160010160009054906101000a900473ffffffffffffffffffffffffffffffffffffffff1673ffffffffffffffffffffffffffffffffffffffff1614801561137a5750600115156006838154811061135757611356612407565b5b906000526020600020906006020160040160009054906101000a900460ff161515145b80156113865750600081115b6113c5576040517f08c379a00000000000000000000000000000000000000000000000000000000081526004016113bc9061286d565b60405180910390fd5b80600683815481106113da576113d9612407565b5b9060005260206000209060060201600301819055505050565b6000600560009054906101000a900473ffffffffffffffffffffffffffffffffffffffff16905081600560006101000a81548173ffffffffffffffffffffffffffffffffffffffff021916908373ffffffffffffffffffffffffffffffffffffffff1602179055508173ffffffffffffffffffffffffffffffffffffffff168173ffffffffffffffffffffffffffffffffffffffff167f8be0079c531659141344cd1fd0a4f28419497f9722a3daafe3b4186f6b6457e060405160405180910390a35050565b3373ffffffffffffffffffffffffffffffffffffffff16600682815481106114e4576114e3612407565b5b906000526020600020906006020160010160009054906101000a900473ffffffffffffffffffffffffffffffffffffffff1673ffffffffffffffffffffffffffffffffffffffff1614801561156f5750600115156006828154811061154c5761154b612407565b5b906000526020600020906006020160040160009054906101000a900460ff161515145b6115ae576040517f08c379a00000000000000000000000000000000000000000000000000000000081526004016115a5906128ff565b60405180910390fd5b6000600682815481106115c4576115c3612407565b5b906000526020600020906006020160040160006101000a81548160ff02191690831515021790555050565b6000821180156115ff5750600081115b61163e576040517f08c379a000000000000000000000000000000000000000000000000000000000815260040161163590612991565b60405180910390fd5b6000600680549050905060006040518060c001604052808381526020013373ffffffffffffffffffffffffffffffffffffffff16815260200185815260200184815260200160011515815260200142815250905060068190806001815401808255809150506001900390600052602060002090600602016000909190919091506000820151816000015560208201518160010160006101000a81548173ffffffffffffffffffffffffffffffffffffffff021916908373ffffffffffffffffffffffffffffffffffffffff160217905550604082015181600201556060820151816003015560808201518160040160006101000a81548160ff02191690831515021790555060a08201518160050155505050505050565b600073ffffffffffffffffffffffffffffffffffffffff168473ffffffffffffffffffffffffffffffffffffffff16036117c75760006040517fe602df050000000000000000000000000000000000000000000000000000000081526004016117be91906121e9565b60405180910390fd5b600073ffffffffffffffffffffffffffffffffffffffff168373ffffffffffffffffffffffffffffffffffffffff16036118395760006040517f94280d6200000000000000000000000000000000000000000000000000000000815260040161183091906121e9565b60405180910390fd5b81600160008673ffffffffffffffffffffffffffffffffffffffff1673ffffffffffffffffffffffffffffffffffffffff16815260200190815260200160002060008573ffffffffffffffffffffffffffffffffffffffff1673ffffffffffffffffffffffffffffffffffffffff168152602001908152602001600020819055508015611926578273ffffffffffffffffffffffffffffffffffffffff168473ffffffffffffffffffffffffffffffffffffffff167f8c5be1e5ebec7d5bd14f71427d1e84f3dd0314c0f7b2291e5b200ac8c7c3b9258460405161191d9190611f37565b60405180910390a35b50505050565b600073ffffffffffffffffffffffffffffffffffffffff168373ffffffffffffffffffffffffffffffffffffffff160361197e578060026000828254611972919061267e565b92505081905550611a51565b60008060008573ffffffffffffffffffffffffffffffffffffffff1673ffffffffffffffffffffffffffffffffffffffff16815260200190815260200160002054905081811015611a0a578381836040517fe450d38c000000000000000000000000000000000000000000000000000000008152600401611a019392919061279e565b60405180910390fd5b8181036000808673ffffffffffffffffffffffffffffffffffffffff1673ffffffffffffffffffffffffffffffffffffffff16815260200190815260200160002081905550505b600073ffffffffffffffffffffffffffffffffffffffff168273ffffffffffffffffffffffffffffffffffffffff1603611a9a5780600260008282540392505081905550611ae7565b806000808473ffffffffffffffffffffffffffffffffffffffff1673ffffffffffffffffffffffffffffffffffffffff168152602001908152602001600020600082825401925050819055505b8173ffffffffffffffffffffffffffffffffffffffff168373ffffffffffffffffffffffffffffffffffffffff167fddf252ad1be2c89b69c2b068fc378daa952ba7f163c4a11628f55a4df523b3ef83604051611b449190611f37565b60405180910390a3505050565b6040518060c0016040528060008152602001600073ffffffffffffffffffffffffffffffffffffffff1681526020016000815260200160008152602001600015158152602001600081525090565b600081519050919050565b600082825260208201905092915050565b60005b83811015611bd9578082015181840152602081019050611bbe565b60008484015250505050565b6000601f19601f8301169050919050565b6000611c0182611b9f565b611c0b8185611baa565b9350611c1b818560208601611bbb565b611c2481611be5565b840191505092915050565b60006020820190508181036000830152611c498184611bf6565b905092915050565b6000604051905090565b600080fd5b600080fd5b600073ffffffffffffffffffffffffffffffffffffffff82169050919050565b6000611c9082611c65565b9050919050565b611ca081611c85565b8114611cab57600080fd5b50565b600081359050611cbd81611c97565b92915050565b6000819050919050565b611cd681611cc3565b8114611ce157600080fd5b50565b600081359050611cf381611ccd565b92915050565b60008060408385031215611d1057611d0f611c5b565b5b6000611d1e85828601611cae565b9250506020611d2f85828601611ce4565b9150509250929050565b60008115159050919050565b611d4e81611d39565b82525050565b6000602082019050611d696000830184611d45565b92915050565b60008060408385031215611d8657611d85611c5b565b5b6000611d9485828601611ce4565b9250506020611da585828601611ce4565b9150509250929050565b600081519050919050565b600082825260208201905092915050565b6000819050602082019050919050565b611de481611cc3565b82525050565b611df381611c85565b82525050565b611e0281611d39565b82525050565b60c082016000820151611e1e6000850182611ddb565b506020820151611e316020850182611dea565b506040820151611e446040850182611ddb565b506060820151611e576060850182611ddb565b506080820151611e6a6080850182611df9565b5060a0820151611e7d60a0850182611ddb565b50505050565b6000611e8f8383611e08565b60c08301905092915050565b6000602082019050919050565b6000611eb382611daf565b611ebd8185611dba565b9350611ec883611dcb565b8060005b83811015611ef9578151611ee08882611e83565b9750611eeb83611e9b565b925050600181019050611ecc565b5085935050505092915050565b60006020820190508181036000830152611f208184611ea8565b905092915050565b611f3181611cc3565b82525050565b6000602082019050611f4c6000830184611f28565b92915050565b600080fd5b7f4e487b7100000000000000000000000000000000000000000000000000000000600052604160045260246000fd5b611f8f82611be5565b810181811067ffffffffffffffff82111715611fae57611fad611f57565b5b80604052505050565b6000611fc1611c51565b9050611fcd8282611f86565b919050565b600067ffffffffffffffff821115611fed57611fec611f57565b5b602082029050602081019050919050565b600080fd5b600061201661201184611fd2565b611fb7565b9050808382526020820190506020840283018581111561203957612038611ffe565b5b835b81811015612062578061204e8882611cae565b84526020840193505060208101905061203b565b5050509392505050565b600082601f83011261208157612080611f52565b5b8135612091848260208601612003565b91505092915050565b600080604083850312156120b1576120b0611c5b565b5b600083013567ffffffffffffffff8111156120cf576120ce611c60565b5b6120db8582860161206c565b92505060206120ec85828601611ce4565b9150509250929050565b60008060006060848603121561210f5761210e611c5b565b5b600061211d86828701611cae565b935050602061212e86828701611cae565b925050604061213f86828701611ce4565b9150509250925092565b600060ff82169050919050565b61215f81612149565b82525050565b600060208201905061217a6000830184612156565b92915050565b60006020828403121561219657612195611c5b565b5b60006121a484828501611ce4565b91505092915050565b6000602082840312156121c3576121c2611c5b565b5b60006121d184828501611cae565b91505092915050565b6121e381611c85565b82525050565b60006020820190506121fe60008301846121da565b92915050565b6000806040838503121561221b5761221a611c5b565b5b600061222985828601611cae565b925050602061223a85828601611cae565b9150509250929050565b7f4e487b7100000000000000000000000000000000000000000000000000000000600052602260045260246000fd5b6000600282049050600182168061228b57607f821691505b60208210810361229e5761229d612244565b5b50919050565b7f4e487b7100000000000000000000000000000000000000000000000000000000600052601160045260246000fd5b60006122de82611cc3565b91506122e983611cc3565b92508282026122f781611cc3565b9150828204841483151761230e5761230d6122a4565b5b5092915050565b7f4e487b7100000000000000000000000000000000000000000000000000000000600052601260045260246000fd5b600061234f82611cc3565b915061235a83611cc3565b92508261236a57612369612315565b5b828204905092915050565b7f546f6b656e3a205852502073656e74206d75737420626520677265617465722060008201527f6f7220657175616c20746f206f72646572207072696365000000000000000000602082015250565b60006123d1603783611baa565b91506123dc82612375565b604082019050919050565b60006020820190508181036000830152612400816123c4565b9050919050565b7f4e487b7100000000000000000000000000000000000000000000000000000000600052603260045260246000fd5b7f546f6b656e3a2063616e6e6f74206275726e206d6f7265207468616e20796f7560008201527f206f776e00000000000000000000000000000000000000000000000000000000602082015250565b6000612492602483611baa565b915061249d82612436565b604082019050919050565b600060208201905081810360008301526124c181612485565b9050919050565b7f546f6b656e3a20496e73756666696369656e742062616c616e636520746f206360008201527f6c61696d2064696e696e67206372656469740000000000000000000000000000602082015250565b6000612524603283611baa565b915061252f826124c8565b604082019050919050565b6000602082019050818103600083015261255381612517565b9050919050565b7f546f6b656e3a2063616e6e6f7420706c61636520616e206f726465722077697460008201527f68206d6f7265207468616e20796f75206f776e00000000000000000000000000602082015250565b60006125b6603383611baa565b91506125c18261255a565b604082019050919050565b600060208201905081810360008301526125e5816125a9565b9050919050565b7f446f6e6174696f6e20616d6f756e74206d75737420626520677265617465722060008201527f7468616e207a65726f0000000000000000000000000000000000000000000000602082015250565b6000612648602983611baa565b9150612653826125ec565b604082019050919050565b600060208201905081810360008301526126778161263b565b9050919050565b600061268982611cc3565b915061269483611cc3565b92508282019050808211156126ac576126ab6122a4565b5b92915050565b7f5472616461626c653a2074686174206f72646572206973206e6f7420796f757260008201527f732c206f726465722077617320616c72656164792066756c66696c6c6564206f60208201527f7220616d6f756e7420697320696e76616c696400000000000000000000000000604082015250565b6000612734605383611baa565b915061273f826126b2565b606082019050919050565b6000602082019050818103600083015261276381612727565b9050919050565b600061277582611cc3565b915061278083611cc3565b9250828203905081811115612798576127976122a4565b5b92915050565b60006060820190506127b360008301866121da565b6127c06020830185611f28565b6127cd6040830184611f28565b949350505050565b7f5472616461626c653a2074686174206f72646572206973206e6f7420796f757260008201527f732c206f726465722077617320616c72656164792066756c66696c6c6564206f60208201527f7220707269636520697320696e76616c69640000000000000000000000000000604082015250565b6000612857605283611baa565b9150612862826127d5565b606082019050919050565b600060208201905081810360008301526128868161284a565b9050919050565b7f5472616461626c653a2074686174206f72646572206973206e6f7420796f757260008201527f73206f72206f726465722077617320616c72656164792066756c66696c6c6564602082015250565b60006128e9604083611baa565b91506128f48261288d565b604082019050919050565b60006020820190508181036000830152612918816128dc565b9050919050565b7f5472616461626c653a20616d6f756e7420616e64207072696365206d7573742060008201527f626520706f73697469766520616e64206e6f74206e756c6c0000000000000000602082015250565b600061297b603883611baa565b91506129868261291f565b604082019050919050565b600060208201905081810360008301526129aa8161296e565b905091905056fea264697066735822122057cb1e84851b6bc0b0122d9359894c233903ab0f6d232bf47161e661882ba7ed64736f6c634300081c0033",
  "linkReferences": {},
  "deployedLinkReferences": {}
}